{
  "address": "0x53e2B00C4b2e00FF1CB8B7Bee44927793cAE01F3",
  "abi": [
    {
      "constant": true,
      "inputs": [
        {
          "name": "_interfaceId",
          "type": "bytes4"
        }
      ],
      "name": "supportsInterface",
      "outputs": [
        {
          "name": "",
          "type": "bool"
        }
      ],
      "payable": false,
      "stateMutability": "pure",
      "type": "function"
    },
    {
      "constant": true,
      "inputs": [],
      "name": "hasInitialized",
      "outputs": [
        {
          "name": "",
          "type": "bool"
        }
      ],
      "payable": false,
      "stateMutability": "view",
      "type": "function"
    },
    {
      "constant": true,
      "inputs": [],
      "name": "MAX_VESTINGS_PER_ADDRESS",
      "outputs": [
        {
          "name": "",
          "type": "uint256"
        }
      ],
      "payable": false,
      "stateMutability": "view",
      "type": "function"
    },
    {
      "constant": true,
      "inputs": [
        {
          "name": "_holder",
          "type": "address"
        }
      ],
      "name": "spendableBalanceOf",
      "outputs": [
        {
          "name": "",
          "type": "uint256"
        }
      ],
      "payable": false,
      "stateMutability": "view",
      "type": "function"
    },
    {
      "constant": true,
      "inputs": [],
      "name": "wrappableToken",
      "outputs": [
        {
          "name": "",
          "type": "address"
        }
      ],
      "payable": false,
      "stateMutability": "view",
      "type": "function"
    },
    {
      "constant": false,
      "inputs": [
        {
          "name": "_receiver",
          "type": "address"
        },
        {
          "name": "_amount",
          "type": "uint256"
        },
        {
          "name": "_start",
          "type": "uint64"
        },
        {
          "name": "_cliff",
          "type": "uint64"
        },
        {
          "name": "_vested",
          "type": "uint64"
        },
        {
          "name": "_revokable",
          "type": "bool"
        }
      ],
      "name": "assignVested",
      "outputs": [
        {
          "name": "",
          "type": "uint256"
        }
      ],
      "payable": false,
      "stateMutability": "nonpayable",
      "type": "function"
    },
    {
      "constant": true,
      "inputs": [
        {
          "name": "_script",
          "type": "bytes"
        }
      ],
      "name": "getEVMScriptExecutor",
      "outputs": [
        {
          "name": "",
          "type": "address"
        }
      ],
      "payable": false,
      "stateMutability": "view",
      "type": "function"
    },
    {
      "constant": true,
      "inputs": [],
      "name": "getRecoveryVault",
      "outputs": [
        {
          "name": "",
          "type": "address"
        }
      ],
      "payable": false,
      "stateMutability": "view",
      "type": "function"
    },
    {
      "constant": true,
      "inputs": [
        {
          "name": "_recipient",
          "type": "address"
        },
        {
          "name": "_vestingId",
          "type": "uint256"
        }
      ],
      "name": "getVesting",
      "outputs": [
        {
          "name": "amount",
          "type": "uint256"
        },
        {
          "name": "start",
          "type": "uint64"
        },
        {
          "name": "cliff",
          "type": "uint64"
        },
        {
          "name": "vesting",
          "type": "uint64"
        },
        {
          "name": "revokable",
          "type": "bool"
        }
      ],
      "payable": false,
      "stateMutability": "view",
      "type": "function"
    },
    {
      "constant": false,
      "inputs": [
        {
          "name": "_receiver",
          "type": "address"
        },
        {
          "name": "_amount",
          "type": "uint256"
        }
      ],
      "name": "mint",
      "outputs": [],
      "payable": false,
      "stateMutability": "nonpayable",
      "type": "function"
    },
    {
      "constant": true,
      "inputs": [],
      "name": "CHANGE_CONTROLLER_ROLE",
      "outputs": [
        {
          "name": "",
          "type": "bytes32"
        }
      ],
      "payable": false,
      "stateMutability": "view",
      "type": "function"
    },
    {
      "constant": false,
      "inputs": [
        {
          "name": "_from",
          "type": "address"
        },
        {
          "name": "_to",
          "type": "address"
        },
        {
          "name": "_amount",
          "type": "uint256"
        }
      ],
      "name": "onTransfer",
      "outputs": [
        {
          "name": "",
          "type": "bool"
        }
      ],
      "payable": false,
      "stateMutability": "nonpayable",
      "type": "function"
    },
    {
      "constant": true,
      "inputs": [],
      "name": "forwarderType",
      "outputs": [
        {
          "name": "",
          "type": "uint8"
        }
      ],
      "payable": false,
      "stateMutability": "pure",
      "type": "function"
    },
    {
      "constant": false,
      "inputs": [
        {
          "name": "_hook",
          "type": "address"
        }
      ],
      "name": "registerHook",
      "outputs": [
        {
          "name": "",
          "type": "uint256"
        }
      ],
      "payable": false,
      "stateMutability": "nonpayable",
      "type": "function"
    },
    {
      "constant": true,
      "inputs": [
        {
          "name": "_holder",
          "type": "address"
        },
        {
          "name": "_time",
          "type": "uint256"
        }
      ],
      "name": "transferableBalance",
      "outputs": [
        {
          "name": "",
          "type": "uint256"
        }
      ],
      "payable": false,
      "stateMutability": "view",
      "type": "function"
    },
    {
      "constant": true,
      "inputs": [],
      "name": "hooksLength",
      "outputs": [
        {
          "name": "",
          "type": "uint256"
        }
      ],
      "payable": false,
      "stateMutability": "view",
      "type": "function"
    },
    {
      "constant": true,
      "inputs": [
        {
          "name": "_token",
          "type": "address"
        }
      ],
      "name": "allowRecoverability",
      "outputs": [
        {
          "name": "",
          "type": "bool"
        }
      ],
      "payable": false,
      "stateMutability": "view",
      "type": "function"
    },
    {
      "constant": true,
      "inputs": [],
      "name": "appId",
      "outputs": [
        {
          "name": "",
          "type": "bytes32"
        }
      ],
      "payable": false,
      "stateMutability": "view",
      "type": "function"
    },
    {
      "constant": true,
      "inputs": [],
      "name": "ISSUE_ROLE",
      "outputs": [
        {
          "name": "",
          "type": "bytes32"
        }
      ],
      "payable": false,
      "stateMutability": "view",
      "type": "function"
    },
    {
      "constant": true,
      "inputs": [
        {
          "name": "",
          "type": "uint256"
        }
      ],
      "name": "hooks",
      "outputs": [
        {
          "name": "",
          "type": "address"
        }
      ],
      "payable": false,
      "stateMutability": "view",
      "type": "function"
    },
    {
      "constant": true,
      "inputs": [],
      "name": "getInitializationBlock",
      "outputs": [
        {
          "name": "",
          "type": "uint256"
        }
      ],
      "payable": false,
      "stateMutability": "view",
      "type": "function"
    },
    {
      "constant": true,
      "inputs": [
        {
          "name": "",
          "type": "address"
        }
      ],
      "name": "vestingsLengths",
      "outputs": [
        {
          "name": "",
          "type": "uint256"
        }
      ],
      "payable": false,
      "stateMutability": "view",
      "type": "function"
    },
    {
      "constant": false,
      "inputs": [
        {
          "name": "_token",
          "type": "address"
        }
      ],
      "name": "transferToVault",
      "outputs": [],
      "payable": false,
      "stateMutability": "nonpayable",
      "type": "function"
    },
    {
      "constant": false,
      "inputs": [
        {
          "name": "_holder",
          "type": "address"
        },
        {
          "name": "_amount",
          "type": "uint256"
        }
      ],
      "name": "burn",
      "outputs": [],
      "payable": false,
      "stateMutability": "nonpayable",
      "type": "function"
    },
    {
      "constant": true,
      "inputs": [
        {
          "name": "_sender",
          "type": "address"
        },
        {
          "name": "_role",
          "type": "bytes32"
        },
        {
          "name": "_params",
          "type": "uint256[]"
        }
      ],
      "name": "canPerform",
      "outputs": [
        {
          "name": "",
          "type": "bool"
        }
      ],
      "payable": false,
      "stateMutability": "view",
      "type": "function"
    },
    {
      "constant": true,
      "inputs": [],
      "name": "getEVMScriptRegistry",
      "outputs": [
        {
          "name": "",
          "type": "address"
        }
      ],
      "payable": false,
      "stateMutability": "view",
      "type": "function"
    },
    {
      "constant": true,
      "inputs": [],
      "name": "ASSIGN_ROLE",
      "outputs": [
        {
          "name": "",
          "type": "bytes32"
        }
      ],
      "payable": false,
      "stateMutability": "view",
      "type": "function"
    },
    {
      "constant": false,
      "inputs": [
        {
          "name": "_hookId",
          "type": "uint256"
        }
      ],
      "name": "revokeHook",
      "outputs": [],
      "payable": false,
      "stateMutability": "nonpayable",
      "type": "function"
    },
    {
      "constant": true,
      "inputs": [],
      "name": "BURN_ROLE",
      "outputs": [
        {
          "name": "",
          "type": "bytes32"
        }
      ],
      "payable": false,
      "stateMutability": "view",
      "type": "function"
    },
    {
      "constant": false,
      "inputs": [
        {
          "name": "_receiver",
          "type": "address"
        },
        {
          "name": "_amount",
          "type": "uint256"
        }
      ],
      "name": "assign",
      "outputs": [],
      "payable": false,
      "stateMutability": "nonpayable",
      "type": "function"
    },
    {
      "constant": true,
      "inputs": [
        {
          "name": "_sender",
          "type": "address"
        },
        {
          "name": "",
          "type": "bytes"
        }
      ],
      "name": "canForward",
      "outputs": [
        {
          "name": "",
          "type": "bool"
        }
      ],
      "payable": false,
      "stateMutability": "view",
      "type": "function"
    },
    {
      "constant": false,
      "inputs": [
        {
          "name": "_amount",
          "type": "uint256"
        }
      ],
      "name": "issue",
      "outputs": [],
      "payable": false,
      "stateMutability": "nonpayable",
      "type": "function"
    },
    {
      "constant": true,
      "inputs": [],
      "name": "kernel",
      "outputs": [
        {
          "name": "",
          "type": "address"
        }
      ],
      "payable": false,
      "stateMutability": "view",
      "type": "function"
    },
    {
      "constant": false,
      "inputs": [
        {
          "name": "_newController",
          "type": "address"
        }
      ],
      "name": "changeTokenController",
      "outputs": [],
      "payable": false,
      "stateMutability": "nonpayable",
      "type": "function"
    },
    {
      "constant": false,
      "inputs": [
        {
          "name": "_evmScript",
          "type": "bytes"
        }
      ],
      "name": "forward",
      "outputs": [],
      "payable": false,
      "stateMutability": "nonpayable",
      "type": "function"
    },
    {
      "constant": false,
      "inputs": [
        {
          "name": "_holder",
          "type": "address"
        },
        {
          "name": "_spender",
          "type": "address"
        },
        {
          "name": "_amount",
          "type": "uint256"
        }
      ],
      "name": "onApprove",
      "outputs": [
        {
          "name": "",
          "type": "bool"
        }
      ],
      "payable": false,
      "stateMutability": "nonpayable",
      "type": "function"
    },
    {
      "constant": false,
      "inputs": [
        {
          "name": "_amount",
          "type": "uint256"
        }
      ],
      "name": "unwrap",
      "outputs": [],
      "payable": false,
      "stateMutability": "nonpayable",
      "type": "function"
    },
    {
      "constant": true,
      "inputs": [],
      "name": "isPetrified",
      "outputs": [
        {
          "name": "",
          "type": "bool"
        }
      ],
      "payable": false,
      "stateMutability": "view",
      "type": "function"
    },
    {
      "constant": true,
      "inputs": [],
      "name": "MINT_ROLE",
      "outputs": [
        {
          "name": "",
          "type": "bytes32"
        }
      ],
      "payable": false,
      "stateMutability": "view",
      "type": "function"
    },
    {
      "constant": false,
      "inputs": [
        {
          "name": "_amount",
          "type": "uint256"
        }
      ],
      "name": "wrap",
      "outputs": [],
      "payable": false,
      "stateMutability": "nonpayable",
      "type": "function"
    },
    {
      "constant": true,
      "inputs": [],
      "name": "maxAccountTokens",
      "outputs": [
        {
          "name": "",
          "type": "uint256"
        }
      ],
      "payable": false,
      "stateMutability": "view",
      "type": "function"
    },
    {
      "constant": true,
      "inputs": [],
      "name": "REVOKE_VESTINGS_ROLE",
      "outputs": [
        {
          "name": "",
          "type": "bytes32"
        }
      ],
      "payable": false,
      "stateMutability": "view",
      "type": "function"
    },
    {
      "constant": false,
      "inputs": [
        {
          "name": "_token",
          "type": "address"
        },
        {
          "name": "_wrappableToken",
          "type": "address"
        },
        {
          "name": "_transferable",
          "type": "bool"
        },
        {
          "name": "_maxAccountTokens",
          "type": "uint256"
        }
      ],
      "name": "initialize",
      "outputs": [],
      "payable": false,
      "stateMutability": "nonpayable",
      "type": "function"
    },
    {
      "constant": false,
      "inputs": [
        {
          "name": "",
          "type": "address"
        }
      ],
      "name": "proxyPayment",
      "outputs": [
        {
          "name": "",
          "type": "bool"
        }
      ],
      "payable": true,
      "stateMutability": "payable",
      "type": "function"
    },
    {
      "constant": true,
      "inputs": [],
      "name": "SET_HOOK_ROLE",
      "outputs": [
        {
          "name": "",
          "type": "bytes32"
        }
      ],
      "payable": false,
      "stateMutability": "view",
      "type": "function"
    },
    {
      "constant": false,
      "inputs": [
        {
          "name": "_holder",
          "type": "address"
        },
        {
          "name": "_vestingId",
          "type": "uint256"
        }
      ],
      "name": "revokeVesting",
      "outputs": [],
      "payable": false,
      "stateMutability": "nonpayable",
      "type": "function"
    },
    {
      "constant": true,
      "inputs": [],
      "name": "token",
      "outputs": [
        {
          "name": "",
          "type": "address"
        }
      ],
      "payable": false,
      "stateMutability": "view",
      "type": "function"
    },
    {
      "constant": true,
      "inputs": [],
      "name": "isForwarder",
      "outputs": [
        {
          "name": "",
          "type": "bool"
        }
      ],
      "payable": false,
      "stateMutability": "pure",
      "type": "function"
    },
    {
      "anonymous": false,
      "inputs": [
        {
          "indexed": false,
          "name": "token",
          "type": "address"
        },
        {
          "indexed": false,
          "name": "wrappableToken",
          "type": "address"
        }
      ],
      "name": "TokenManagerInitialized",
      "type": "event"
    },
    {
      "anonymous": false,
      "inputs": [
        {
          "indexed": true,
          "name": "receiver",
          "type": "address"
        },
        {
          "indexed": false,
          "name": "vestingId",
          "type": "uint256"
        },
        {
          "indexed": false,
          "name": "amount",
          "type": "uint256"
        }
      ],
      "name": "NewVesting",
      "type": "event"
    },
    {
      "anonymous": false,
      "inputs": [
        {
          "indexed": true,
          "name": "receiver",
          "type": "address"
        },
        {
          "indexed": false,
          "name": "vestingId",
          "type": "uint256"
        },
        {
          "indexed": false,
          "name": "nonVestedAmount",
          "type": "uint256"
        }
      ],
      "name": "RevokeVesting",
      "type": "event"
    },
    {
      "anonymous": false,
      "inputs": [
        {
          "indexed": true,
          "name": "executor",
          "type": "address"
        },
        {
          "indexed": false,
          "name": "script",
          "type": "bytes"
        },
        {
          "indexed": false,
          "name": "input",
          "type": "bytes"
        },
        {
          "indexed": false,
          "name": "returnData",
          "type": "bytes"
        }
      ],
      "name": "ScriptResult",
      "type": "event"
    },
    {
      "anonymous": false,
      "inputs": [
        {
          "indexed": true,
          "name": "vault",
          "type": "address"
        },
        {
          "indexed": true,
          "name": "token",
          "type": "address"
        },
        {
          "indexed": false,
          "name": "amount",
          "type": "uint256"
        }
      ],
      "name": "RecoverToVault",
      "type": "event"
    }
  ],
  "transactionHash": "0x8b8047fa81350be0bc96ca75b15c8066312e718e75c1b4ebf70ba1857f9dac6f",
  "args": [],
  "solcInputHash": "cb027f9f39dd67a3f31757a2a391c6a7",
  "bytecode": "0x6080604052620000176401000000006200001d810204565b6200023b565b6200003064010000000062000125810204565b60408051808201909152601881527f494e49545f414c52454144595f494e495449414c495a45440000000000000000602082015290156200010c576040517f08c379a00000000000000000000000000000000000000000000000000000000081526004018080602001828103825283818151815260200191508051906020019080838360005b83811015620000d0578181015183820152602001620000b6565b50505050905090810190601f168015620000fe5780820380516001836020036101000a031916815260200191505b509250505060405180910390fd5b506200012360001964010000000062000154810204565b565b60006200014f6000805160206200526e83398151915264010000000062003f836200023382021704565b905090565b6200016764010000000062000125810204565b60408051808201909152601881527f494e49545f414c52454144595f494e495449414c495a454400000000000000006020820152901562000206576040517f08c379a000000000000000000000000000000000000000000000000000000000815260040180806020018281038252838181518152602001915080519060200190808383600083811015620000d0578181015183820152602001620000b6565b50620002306000805160206200526e8339815191528264010000000062004f316200023782021704565b50565b5490565b9055565b615023806200024b6000396000f3006080604052600436106102455763ffffffff7c010000000000000000000000000000000000000000000000000000000060003504166301ffc9a7811461024a5780630803fac0146102985780630db3971b146102ad5780630f8f8b83146102d45780631dfab0351461030257806321cb18cd146103405780632914b9bd1461038f57806332f0a3b5146103e85780633e05a36d146103fd57806340c10f19146104675780634a191c0d1461049a5780634a393149146104af57806357d0c179146104e65780636354b6611461051f57806372f8393c1461054d57806374c46e431461057e5780637e7db6e11461059357806380afdea8146105c1578063856222f1146105d6578063864c17d7146105eb5780638b3dd7491461060357806397f2562a146106185780639d4941d8146106465780639dc29fac14610674578063a1658fad146106a5578063a479e50814610719578063a51d9a8e1461072e578063b80fc15a14610743578063b930908f1461075b578063be76048814610770578063c0774df3146107a1578063cc872b66146107db578063d4aae0c4146107f3578063d6c8976b14610808578063d948d46814610836578063da682aeb14610856578063de0e9a3e1461088d578063de4796ed146108a5578063e9a9c850146108ba578063ea598cb0146108cf578063ecfda432146108e7578063edc168f1146108fc578063effb952314610911578063f48c30541461094d578063f68e73041461096e578063fa6799f214610983578063fc0c546a146109b4578063fd64eccb146109c9575b600080fd5b34801561025657600080fd5b506102847fffffffff00000000000000000000000000000000000000000000000000000000600435166109de565b604080519115158252519081900360200190f35b3480156102a457600080fd5b50610284610a3b565b3480156102b957600080fd5b506102c2610a64565b60408051918252519081900360200190f35b3480156102e057600080fd5b506102c273ffffffffffffffffffffffffffffffffffffffff60043516610a69565b34801561030e57600080fd5b50610317610b5e565b6040805173ffffffffffffffffffffffffffffffffffffffff9092168252519081900360200190f35b34801561034c57600080fd5b506102c273ffffffffffffffffffffffffffffffffffffffff6004351660243567ffffffffffffffff6044358116906064358116906084351660a4351515610b7a565b34801561039b57600080fd5b506040805160206004803580820135601f81018490048402850184019095528484526103179436949293602493928401919081908401838280828437509497506110c19650505050505050565b3480156103f457600080fd5b506103176111cd565b34801561040957600080fd5b5061042e73ffffffffffffffffffffffffffffffffffffffff6004351660243561126b565b6040805195865267ffffffffffffffff948516602087015292841685840152921660608401529015156080830152519081900360a00190f35b34801561047357600080fd5b5061049873ffffffffffffffffffffffffffffffffffffffff600435166024356113f4565b005b3480156104a657600080fd5b506102c261159e565b3480156104bb57600080fd5b5061028473ffffffffffffffffffffffffffffffffffffffff600435811690602435166044356115d3565b3480156104f257600080fd5b506104fb6116ce565b6040518082600281111561050b57fe5b60ff16815260200191505060405180910390f35b34801561052b57600080fd5b506102c273ffffffffffffffffffffffffffffffffffffffff600435166116d3565b34801561055957600080fd5b506102c273ffffffffffffffffffffffffffffffffffffffff6004351660243561189c565b34801561058a57600080fd5b506102c261194e565b34801561059f57600080fd5b5061028473ffffffffffffffffffffffffffffffffffffffff60043516611954565b3480156105cd57600080fd5b506102c26119bd565b3480156105e257600080fd5b506102c26119ed565b3480156105f757600080fd5b50610317600435611a22565b34801561060f57600080fd5b506102c2611a4a565b34801561062457600080fd5b506102c273ffffffffffffffffffffffffffffffffffffffff60043516611a75565b34801561065257600080fd5b5061049873ffffffffffffffffffffffffffffffffffffffff60043516611a87565b34801561068057600080fd5b5061049873ffffffffffffffffffffffffffffffffffffffff60043516602435611da9565b3480156106b157600080fd5b50604080516020600460443581810135838102808601850190965280855261028495833573ffffffffffffffffffffffffffffffffffffffff16956024803596369695606495939492019291829185019084908082843750949750611e989650505050505050565b34801561072557600080fd5b50610317612028565b34801561073a57600080fd5b506102c26120ea565b34801561074f57600080fd5b5061049860043561211f565b34801561076757600080fd5b506102c26122d5565b34801561077c57600080fd5b5061049873ffffffffffffffffffffffffffffffffffffffff6004351660243561230a565b3480156107ad57600080fd5b506102846004803573ffffffffffffffffffffffffffffffffffffffff1690602480359081019101356123f9565b3480156107e757600080fd5b5061049860043561240c565b3480156107ff57600080fd5b506103176124ff565b34801561081457600080fd5b5061049873ffffffffffffffffffffffffffffffffffffffff6004351661252a565b34801561084257600080fd5b50610498600480356024810191013561269c565b34801561086257600080fd5b5061028473ffffffffffffffffffffffffffffffffffffffff60043581169060243516604435612830565b34801561089957600080fd5b506104986004356128f3565b3480156108b157600080fd5b50610284612b1e565b3480156108c657600080fd5b506102c2612b4f565b3480156108db57600080fd5b50610498600435612b84565b3480156108f357600080fd5b506102c2612db0565b34801561090857600080fd5b506102c2612db6565b34801561091d57600080fd5b5061049873ffffffffffffffffffffffffffffffffffffffff600435811690602435166044351515606435612deb565b61028473ffffffffffffffffffffffffffffffffffffffff60043516613218565b34801561097a57600080fd5b506102c26132d8565b34801561098f57600080fd5b5061049873ffffffffffffffffffffffffffffffffffffffff6004351660243561330d565b3480156109c057600080fd5b506103176137ea565b3480156109d557600080fd5b506102846116ce565b60006109e982613806565b80610a3557507fffffffff0000000000000000000000000000000000000000000000000000000082167f54053e6c00000000000000000000000000000000000000000000000000000000145b92915050565b600080610a46611a4a565b90508015801590610a5e575080610a5b613850565b10155b91505090565b603281565b6000610a73610a3b565b60408051808201909152601481527f494e49545f4e4f545f494e495449414c495a45440000000000000000000000006020820152901515610b4c576040517f08c379a00000000000000000000000000000000000000000000000000000000081526004018080602001828103825283818151815260200191508051906020019080838360005b83811015610b11578181015183820152602001610af9565b50505050905090810190601f168015610b3e5780820380516001836020036101000a031916815260200191505b509250505060405180910390fd5b50610a3582610b59613854565b613858565b60015473ffffffffffffffffffffffffffffffffffffffff1681565b604080517f41535349474e5f524f4c450000000000000000000000000000000000000000008152905190819003600b0190206000908190610bbb89896139f8565b610bc6338383611e98565b60408051808201909152600f81527f4150505f415554485f4641494c454400000000000000000000000000000000006020820152901515610c63576040517f08c379a000000000000000000000000000000000000000000000000000000000815260040180806020018281038252838181518152602001915080519060200190808383600083811015610b11578181015183820152602001610af9565b5060408051808201909152601081527f544d5f56455354494e475f544f5f544d00000000000000000000000000000000602082015273ffffffffffffffffffffffffffffffffffffffff8b16301415610d18576040517f08c379a000000000000000000000000000000000000000000000000000000000815260040180806020018281038252838181518152602001915080519060200190808383600083811015610b11578181015183820152602001610af9565b5073ffffffffffffffffffffffffffffffffffffffff8a16600090815260046020908152604091829020548251808401909352601483527f544d5f544f4f5f4d414e595f56455354494e475300000000000000000000000091830191909152603211610de0576040517f08c379a000000000000000000000000000000000000000000000000000000000815260040180806020018281038252838181518152602001915080519060200190808383600083811015610b11578181015183820152602001610af9565b508667ffffffffffffffff168867ffffffffffffffff1611158015610e1957508567ffffffffffffffff168767ffffffffffffffff1611155b60408051808201909152601381527f544d5f57524f4e475f434c4946465f44415445000000000000000000000000006020820152901515610eb6576040517f08c379a000000000000000000000000000000000000000000000000000000000815260040180806020018281038252838181518152602001915080519060200190808383600083811015610b11578181015183820152602001610af9565b50600460008b73ffffffffffffffffffffffffffffffffffffffff1673ffffffffffffffffffffffffffffffffffffffff168152602001908152602001600020600081548092919060010191905055925060a0604051908101604052808a81526020018967ffffffffffffffff1681526020018867ffffffffffffffff1681526020018767ffffffffffffffff168152602001861515815250600360008c73ffffffffffffffffffffffffffffffffffffffff1673ffffffffffffffffffffffffffffffffffffffff16815260200190815260200160002060008581526020019081526020016000206000820151816000015560208201518160010160006101000a81548167ffffffffffffffff021916908367ffffffffffffffff16021790555060408201518160010160086101000a81548167ffffffffffffffff021916908367ffffffffffffffff16021790555060608201518160010160106101000a81548167ffffffffffffffff021916908367ffffffffffffffff16021790555060808201518160010160186101000a81548160ff0219169083151502179055509050506110638a8a613a1a565b60408051848152602081018b9052815173ffffffffffffffffffffffffffffffffffffffff8d16927f627ad26dcfe82ec79b33fda0ddd062f6fab9f4914acac8345f79090dfd86fb54928290030190a2509098975050505050505050565b60006110cb612028565b73ffffffffffffffffffffffffffffffffffffffff166304bf2a7f836040518263ffffffff167c01000000000000000000000000000000000000000000000000000000000281526004018080602001828103825283818151815260200191508051906020019080838360005b8381101561114f578181015183820152602001611137565b50505050905090810190601f16801561117c5780820380516001836020036101000a031916815260200191505b5092505050602060405180830381600087803b15801561119b57600080fd5b505af11580156111af573d6000803e3d6000fd5b505050506040513d60208110156111c557600080fd5b505192915050565b60006111d76124ff565b73ffffffffffffffffffffffffffffffffffffffff166332f0a3b56040518163ffffffff167c0100000000000000000000000000000000000000000000000000000000028152600401602060405180830381600087803b15801561123a57600080fd5b505af115801561124e573d6000803e3d6000fd5b505050506040513d602081101561126457600080fd5b5051905090565b6000806000806000808787600460008373ffffffffffffffffffffffffffffffffffffffff1673ffffffffffffffffffffffffffffffffffffffff1681526020019081526020016000205481106040805190810160405280600d81526020017f544d5f4e4f5f56455354494e4700000000000000000000000000000000000000815250901515611357576040517f08c379a000000000000000000000000000000000000000000000000000000000815260040180806020018281038252838181518152602001915080519060200190808383600083811015610b11578181015183820152602001610af9565b5050505073ffffffffffffffffffffffffffffffffffffffff969096166000908152600360209081526040808320978352969052949094208054600190910154909667ffffffffffffffff8083169750680100000000000000008304811696507001000000000000000000000000000000008304169450780100000000000000000000000000000000000000000000000090910460ff1692509050565b604080517f4d494e545f524f4c4500000000000000000000000000000000000000000000008152905190819003600901902061143083836139f8565b61143b338383611e98565b60408051808201909152600f81527f4150505f415554485f4641494c4544000000000000000000000000000000000060208201529015156114d8576040517f08c379a000000000000000000000000000000000000000000000000000000000815260040180806020018281038252838181518152602001915080519060200190808383600083811015610b11578181015183820152602001610af9565b5060408051808201909152601681527f544d5f4d494e545f52454345495645525f49535f544d00000000000000000000602082015273ffffffffffffffffffffffffffffffffffffffff851630141561158d576040517f08c379a000000000000000000000000000000000000000000000000000000000815260040180806020018281038252838181518152602001915080519060200190808383600083811015610b11578181015183820152602001610af9565b506115988484613c10565b50505050565b604080517f4348414e47455f434f4e54524f4c4c45525f524f4c45000000000000000000008152905190819003601601902081565b6000805460408051808201909152601381527f544d5f43414c4c45525f4e4f545f544f4b454e0000000000000000000000000060208201529073ffffffffffffffffffffffffffffffffffffffff16331461168a576040517f08c379a000000000000000000000000000000000000000000000000000000000815260040180806020018281038252838181518152602001915080519060200190808383600083811015610b11578181015183820152602001610af9565b506116958383613d6e565b80156116ac5750816116a985610b59613854565b10155b156116c3576116bc848484613e58565b90506116c7565b5060005b9392505050565b600190565b604080517f5345545f484f4f4b5f524f4c45000000000000000000000000000000000000008152905190819003600d019020600090819061171384613f62565b61171e338383611e98565b60408051808201909152600f81527f4150505f415554485f4641494c4544000000000000000000000000000000000060208201529015156117bb576040517f08c379a000000000000000000000000000000000000000000000000000000000815260040180806020018281038252838181518152602001915080519060200190808383600083811015610b11578181015183820152602001610af9565b50600680546001810190915560008181526005602052604080822080547fffffffffffffffffffffffff00000000000000000000000000000000000000001673ffffffffffffffffffffffffffffffffffffffff8a81169190911791829055835483517f4d4eb6ce00000000000000000000000000000000000000000000000000000000815260048101879052908216602482015292519497501692634d4eb6ce9260448084019391929182900301818387803b15801561187b57600080fd5b505af115801561188f573d6000803e3d6000fd5b5094979650505050505050565b60006118a6610a3b565b60408051808201909152601481527f494e49545f4e4f545f494e495449414c495a45440000000000000000000000006020820152901515611943576040517f08c379a000000000000000000000000000000000000000000000000000000000815260040180806020018281038252838181518152602001915080519060200190808383600083811015610b11578181015183820152602001610af9565b506116c78383613858565b60065481565b600073ffffffffffffffffffffffffffffffffffffffff82161580610a35575060005473ffffffffffffffffffffffffffffffffffffffff838116911614801590610a3557505060015473ffffffffffffffffffffffffffffffffffffffff9081169116141590565b60006119e87fd625496217aa6a3453eecb9c3489dc5a53e6c67b444329ea2b2cbc9ff547639b613f83565b905090565b604080517f49535355455f524f4c45000000000000000000000000000000000000000000008152905190819003600a01902081565b60056020526000908152604090205473ffffffffffffffffffffffffffffffffffffffff1681565b60006119e87febb05b386a8d34882b8711d156f463690983dc47815980fb82aeeff1aa43579e613f83565b60046020526000908152604090205481565b6000806000611a9584611954565b60408051808201909152601281527f5245434f5645525f444953414c4c4f57454400000000000000000000000000006020820152901515611b32576040517f08c379a000000000000000000000000000000000000000000000000000000000815260040180806020018281038252838181518152602001915080519060200190808383600083811015610b11578181015183820152602001610af9565b50611b3b6111cd565b9250611b4683613f8b565b60408051808201909152601a81527f5245434f5645525f5641554c545f4e4f545f434f4e54524143540000000000006020820152901515611be3576040517f08c379a000000000000000000000000000000000000000000000000000000000815260040180806020018281038252838181518152602001915080519060200190808383600083811015610b11578181015183820152602001610af9565b5073ffffffffffffffffffffffffffffffffffffffff84161515611c4e576040513031925073ffffffffffffffffffffffffffffffffffffffff84169083156108fc029084906000818181858888f19350505050158015611c48573d6000803e3d6000fd5b50611d3e565b5082611c7673ffffffffffffffffffffffffffffffffffffffff82163063ffffffff613fc516565b9150611c9f73ffffffffffffffffffffffffffffffffffffffff8216848463ffffffff6140fe16565b60408051808201909152601d81527f5245434f5645525f544f4b454e5f5452414e534645525f4641494c45440000006020820152901515611d3c576040517f08c379a000000000000000000000000000000000000000000000000000000000815260040180806020018281038252838181518152602001915080519060200190808383600083811015610b11578181015183820152602001610af9565b505b8373ffffffffffffffffffffffffffffffffffffffff168373ffffffffffffffffffffffffffffffffffffffff167f596caf56044b55fb8c4ca640089bbc2b63cae3e978b851f5745cbb7c5b288e02846040518082815260200191505060405180910390a350505050565b604080517f4255524e5f524f4c45000000000000000000000000000000000000000000000081529051908190036009019020611de583836139f8565b611df0338383611e98565b60408051808201909152600f81527f4150505f415554485f4641494c454400000000000000000000000000000000006020820152901515611e8d576040517f08c379a000000000000000000000000000000000000000000000000000000000815260040180806020018281038252838181518152602001915080519060200190808383600083811015610b11578181015183820152602001610af9565b506115988484614196565b600080611ea3610a3b565b1515611eb25760009150612020565b611eba6124ff565b905073ffffffffffffffffffffffffffffffffffffffff81161515611ee25760009150612020565b8073ffffffffffffffffffffffffffffffffffffffff1663fdef9106863087611f0a88614222565b6040517c010000000000000000000000000000000000000000000000000000000063ffffffff871602815273ffffffffffffffffffffffffffffffffffffffff808616600483019081529085166024830152604482018490526080606483019081528351608484015283519192909160a490910190602085019080838360005b83811015611fa2578181015183820152602001611f8a565b50505050905090810190601f168015611fcf5780820380516001836020036101000a031916815260200191505b5095505050505050602060405180830381600087803b158015611ff157600080fd5b505af1158015612005573d6000803e3d6000fd5b505050506040513d602081101561201b57600080fd5b505191505b509392505050565b6000806120336124ff565b604080517fbe00bbd80000000000000000000000000000000000000000000000000000000081527fd6f028ca0e8edb4a8c9757ca4fdccab25fa1e0317da1188108f7d2dee14902fb60048201527fddbcfd564f642ab5627cf68b9b7d374fb4f8a36e941a75d89c87998cef03bd616024820152905173ffffffffffffffffffffffffffffffffffffffff929092169163be00bbd8916044808201926020929091908290030181600087803b15801561119b57600080fd5b604080517f41535349474e5f524f4c450000000000000000000000000000000000000000008152905190819003600b01902081565b604080517f5345545f484f4f4b5f524f4c45000000000000000000000000000000000000008152905190819003600d01902061215a8261422c565b612165338383611e98565b60408051808201909152600f81527f4150505f415554485f4641494c454400000000000000000000000000000000006020820152901515612202576040517f08c379a000000000000000000000000000000000000000000000000000000000815260040180806020018281038252838181518152602001915080519060200190808383600083811015610b11578181015183820152602001610af9565b5060008381526005602052604080822054825482517fc2239b240000000000000000000000000000000000000000000000000000000081526004810188905273ffffffffffffffffffffffffffffffffffffffff9182166024820152925191169263c2239b24926044808201939182900301818387803b15801561228557600080fd5b505af1158015612299573d6000803e3d6000fd5b505050600093845250506005602052506040902080547fffffffffffffffffffffffff0000000000000000000000000000000000000000169055565b604080517f4255524e5f524f4c4500000000000000000000000000000000000000000000008152905190819003600901902081565b604080517f41535349474e5f524f4c450000000000000000000000000000000000000000008152905190819003600b01902061234683836139f8565b612351338383611e98565b60408051808201909152600f81527f4150505f415554485f4641494c4544000000000000000000000000000000000060208201529015156123ee576040517f08c379a000000000000000000000000000000000000000000000000000000000815260040180806020018281038252838181518152602001915080519060200190808383600083811015610b11578181015183820152602001610af9565b506115988484613a1a565b60006124048461426d565b949350505050565b604080517f49535355455f524f4c45000000000000000000000000000000000000000000008152905190819003600a0190206124478261422c565b612452338383611e98565b60408051808201909152600f81527f4150505f415554485f4641494c4544000000000000000000000000000000000060208201529015156124ef576040517f08c379a000000000000000000000000000000000000000000000000000000000815260040180806020018281038252838181518152602001915080519060200190808383600083811015610b11578181015183820152602001610af9565b506124fa3084613c10565b505050565b60006119e87f4172f0f7d2289153072b0a6ca36959e0cbe2efc3afe50fc81636caa96338137b613f83565b604080517f4348414e47455f434f4e54524f4c4c45525f524f4c45000000000000000000008152905190819003601601902061256582613f62565b612570338383611e98565b60408051808201909152600f81527f4150505f415554485f4641494c45440000000000000000000000000000000000602082015290151561260d576040517f08c379a000000000000000000000000000000000000000000000000000000000815260040180806020018281038252838181518152602001915080519060200190808383600083811015610b11578181015183820152602001610af9565b5060008054604080517f3cebb82300000000000000000000000000000000000000000000000000000000815273ffffffffffffffffffffffffffffffffffffffff878116600483015291519190921692633cebb823926024808201939182900301818387803b15801561267f57600080fd5b505af1158015612693573d6000803e3d6000fd5b50505050505050565b6060806126a83361426d565b60408051808201909152601281527f544d5f43414e5f4e4f545f464f525741524400000000000000000000000000006020820152901515612745576040517f08c379a000000000000000000000000000000000000000000000000000000000815260040180806020018281038252838181518152602001915080519060200190808383600083811015610b11578181015183820152602001610af9565b50604080516000815260026020820181815260808301845291945090918481019080388339505060008054835193945073ffffffffffffffffffffffffffffffffffffffff1692849250811061279757fe5b73ffffffffffffffffffffffffffffffffffffffff9283166020918202909201015260018054835192169183919081106127cd57fe5b73ffffffffffffffffffffffffffffffffffffffff909216602092830290910182015260408051601f86018390048302810183019091528481526128299186908690819084018382808284378201915050505050508383614326565b5050505050565b6000805460408051808201909152601381527f544d5f43414c4c45525f4e4f545f544f4b454e0000000000000000000000000060208201529073ffffffffffffffffffffffffffffffffffffffff1633146128e7576040517f08c379a000000000000000000000000000000000000000000000000000000000815260040180806020018281038252838181518152602001915080519060200190808383600083811015610b11578181015183820152602001610af9565b506124048484846149fc565b60015460408051808201909152601581527f544d5f4e4f5f575241505041424c455f544f4b454e000000000000000000000060208201529073ffffffffffffffffffffffffffffffffffffffff1615156129a9576040517f08c379a000000000000000000000000000000000000000000000000000000000815260040180806020018281038252838181518152602001915080519060200190808383600083811015610b11578181015183820152602001610af9565b5060408051808201909152601681527f544d5f4d494e545f52454345495645525f49535f544d00000000000000000000602082015233301415612a48576040517f08c379a000000000000000000000000000000000000000000000000000000000815260040180806020018281038252838181518152602001915080519060200190808383600083811015610b11578181015183820152602001610af9565b50612a533382614196565b600154612a7d9073ffffffffffffffffffffffffffffffffffffffff16338363ffffffff6140fe16565b60408051808201909152601781527f544d5f534146455f5452414e534645525f4641494c45440000000000000000006020820152901515612b1a576040517f08c379a000000000000000000000000000000000000000000000000000000000815260040180806020018281038252838181518152602001915080519060200190808383600083811015610b11578181015183820152602001610af9565b5050565b60007fffffffffffffffffffffffffffffffffffffffffffffffffffffffffffffffff612b49611a4a565b14905090565b604080517f4d494e545f524f4c4500000000000000000000000000000000000000000000008152905190819003600901902081565b60015460408051808201909152601581527f544d5f4e4f5f575241505041424c455f544f4b454e000000000000000000000060208201529073ffffffffffffffffffffffffffffffffffffffff161515612c3a576040517f08c379a000000000000000000000000000000000000000000000000000000000815260040180806020018281038252838181518152602001915080519060200190808383600083811015610b11578181015183820152602001610af9565b5060408051808201909152601681527f544d5f4d494e545f52454345495645525f49535f544d00000000000000000000602082015233301415612cd9576040517f08c379a000000000000000000000000000000000000000000000000000000000815260040180806020018281038252838181518152602001915080519060200190808383600083811015610b11578181015183820152602001610af9565b50600154612d059073ffffffffffffffffffffffffffffffffffffffff1633308463ffffffff614b0616565b60408051808201909152601781527f544d5f534146455f5452414e534645525f4641494c45440000000000000000006020820152901515612da2576040517f08c379a000000000000000000000000000000000000000000000000000000000815260040180806020018281038252838181518152602001915080519060200190808383600083811015610b11578181015183820152602001610af9565b50612dad3382613c10565b50565b60025481565b604080517f5245564f4b455f56455354494e47535f524f4c450000000000000000000000008152905190819003601401902081565b612df3611a4a565b60408051808201909152601881527f494e49545f414c52454144595f494e495449414c495a4544000000000000000060208201529015612e8f576040517f08c379a000000000000000000000000000000000000000000000000000000000815260040180806020018281038252838181518152602001915080519060200190808383600083811015610b11578181015183820152602001610af9565b50612e98614ba7565b3073ffffffffffffffffffffffffffffffffffffffff168473ffffffffffffffffffffffffffffffffffffffff1663f77c47916040518163ffffffff167c0100000000000000000000000000000000000000000000000000000000028152600401602060405180830381600087803b158015612f1357600080fd5b505af1158015612f27573d6000803e3d6000fd5b505050506040513d6020811015612f3d57600080fd5b505160408051808201909152601381527f544d5f544f4b454e5f434f4e54524f4c4c45520000000000000000000000000060208201529173ffffffffffffffffffffffffffffffffffffffff90911614612ff3576040517f08c379a000000000000000000000000000000000000000000000000000000000815260040180806020018281038252838181518152602001915080519060200190808383600083811015610b11578181015183820152602001610af9565b506000805473ffffffffffffffffffffffffffffffffffffffff8087167fffffffffffffffffffffffff000000000000000000000000000000000000000092831617909255600180549286169290911691909117905580156130555780613077565b7fffffffffffffffffffffffffffffffffffffffffffffffffffffffffffffffff5b6002819055508115156000809054906101000a900473ffffffffffffffffffffffffffffffffffffffff1673ffffffffffffffffffffffffffffffffffffffff1663bef97c876040518163ffffffff167c0100000000000000000000000000000000000000000000000000000000028152600401602060405180830381600087803b15801561310557600080fd5b505af1158015613119573d6000803e3d6000fd5b505050506040513d602081101561312f57600080fd5b50511515146131c05760008054604080517ff41e60c50000000000000000000000000000000000000000000000000000000081528515156004820152905173ffffffffffffffffffffffffffffffffffffffff9092169263f41e60c59260248084019382900301818387803b1580156131a757600080fd5b505af11580156131bb573d6000803e3d6000fd5b505050505b6040805173ffffffffffffffffffffffffffffffffffffffff80871682528516602082015281517f5844a58b3fee979aa5196b369b2eb44f59f5a61b1f83af3a55b62b13b903a001929181900390910190a150505050565b6000805460408051808201909152601381527f544d5f43414c4c45525f4e4f545f544f4b454e0000000000000000000000000060208201529073ffffffffffffffffffffffffffffffffffffffff1633146132cf576040517f08c379a000000000000000000000000000000000000000000000000000000000815260040180806020018281038252838181518152602001915080519060200190808383600083811015610b11578181015183820152602001610af9565b50600092915050565b604080517f5345545f484f4f4b5f524f4c45000000000000000000000000000000000000008152905190819003600d01902081565b604080517f5245564f4b455f56455354494e47535f524f4c4500000000000000000000000081529051908190036014019020600090819061334d85613f62565b613358338383611e98565b60408051808201909152600f81527f4150505f415554485f4641494c4544000000000000000000000000000000000060208201529015156133f5576040517f08c379a000000000000000000000000000000000000000000000000000000000815260040180806020018281038252838181518152602001915080519060200190808383600083811015610b11578181015183820152602001610af9565b5073ffffffffffffffffffffffffffffffffffffffff8616600090815260046020908152604091829020548251808401909352600d83527f544d5f4e4f5f56455354494e4700000000000000000000000000000000000000918301919091528791879182106134c0576040517f08c379a000000000000000000000000000000000000000000000000000000000815260040180806020018281038252838181518152602001915080519060200190808383600083811015610b11578181015183820152602001610af9565b5073ffffffffffffffffffffffffffffffffffffffff881660009081526003602090815260408083208a845282529182902060018101548351808501909452601884527f544d5f56455354494e475f4e4f545f5245564f4b41424c4500000000000000009284019290925297507801000000000000000000000000000000000000000000000000900460ff1615156135b4576040517f08c379a000000000000000000000000000000000000000000000000000000000815260040180806020018281038252838181518152602001915080519060200190808383600083811015610b11578181015183820152602001610af9565b5085546135ff906135c3613854565b600189015467ffffffffffffffff8082169168010000000000000000810482169170010000000000000000000000000000000090910416614c86565b73ffffffffffffffffffffffffffffffffffffffff808a1660008181526003602090815260408083208d8452825280832083815560010180547fffffffffffffff00000000000000000000000000000000000000000000000000169055825481517f23b872dd0000000000000000000000000000000000000000000000000000000081526004810195909552306024860152604485018790529051959a50909316936323b872dd936064808501949193918390030190829087803b1580156136c657600080fd5b505af11580156136da573d6000803e3d6000fd5b505050506040513d60208110156136f057600080fd5b50516040805180820190915260208082527f544d5f5245564f4b455f5452414e534645525f46524f4d5f52455645525445449082015290151561378f576040517f08c379a000000000000000000000000000000000000000000000000000000000815260040180806020018281038252838181518152602001915080519060200190808383600083811015610b11578181015183820152602001610af9565b506040805188815260208101879052815173ffffffffffffffffffffffffffffffffffffffff8b16927fafc516b1509f836efdc27d64d966d14f82ef53f456f0de74c12ac8a651a084cc928290030190a25050505050505050565b60005473ffffffffffffffffffffffffffffffffffffffff1681565b7fffffffff0000000000000000000000000000000000000000000000000000000081167f01ffc9a70000000000000000000000000000000000000000000000000000000014919050565b4390565b4290565b60008054604080517f70a0823100000000000000000000000000000000000000000000000000000000815273ffffffffffffffffffffffffffffffffffffffff868116600483015291518493849384938493849392909216916370a082319160248082019260209290919082900301818787803b1580156138d857600080fd5b505af11580156138ec573d6000803e3d6000fd5b505050506040513d602081101561390257600080fd5b5051945073ffffffffffffffffffffffffffffffffffffffff881630146139ec5773ffffffffffffffffffffffffffffffffffffffff8816600090815260046020526040812054945092505b838310156139ec5773ffffffffffffffffffffffffffffffffffffffff881660009081526003602090815260408083208684529091529020805460018201549193506139cd91899067ffffffffffffffff8082169168010000000000000000810482169170010000000000000000000000000000000090910416614c86565b90506139df858263ffffffff614d0016565b945060019092019161394e565b50929695505050505050565b60606116c78373ffffffffffffffffffffffffffffffffffffffff1683614db2565b613a248282613d6e565b60408051808201909152601a81527f544d5f42414c414e43455f494e435f4e4f545f414c4c4f5745440000000000006020820152901515613ac1576040517f08c379a000000000000000000000000000000000000000000000000000000000815260040180806020018281038252838181518152602001915080519060200190808383600083811015610b11578181015183820152602001610af9565b5060008054604080517f23b872dd00000000000000000000000000000000000000000000000000000000815230600482015273ffffffffffffffffffffffffffffffffffffffff868116602483015260448201869052915191909216926323b872dd92606480820193602093909283900390910190829087803b158015613b4757600080fd5b505af1158015613b5b573d6000803e3d6000fd5b505050506040513d6020811015613b7157600080fd5b50516040805180820190915260208082527f544d5f41535349474e5f5452414e534645525f46524f4d5f5245564552544544908201529015156124fa576040517f08c379a000000000000000000000000000000000000000000000000000000000815260040180806020018281038252838181518152602001915080519060200190808383600083811015610b11578181015183820152602001610af9565b613c1a8282613d6e565b60408051808201909152601a81527f544d5f42414c414e43455f494e435f4e4f545f414c4c4f5745440000000000006020820152901515613cb7576040517f08c379a000000000000000000000000000000000000000000000000000000000815260040180806020018281038252838181518152602001915080519060200190808383600083811015610b11578181015183820152602001610af9565b50613cc460008383613e58565b5060008054604080517f827f32c000000000000000000000000000000000000000000000000000000000815273ffffffffffffffffffffffffffffffffffffffff8681166004830152602482018690529151919092169263827f32c092604480820193602093909283900390910190829087803b158015613d4457600080fd5b505af1158015613d58573d6000803e3d6000fd5b505050506040513d602081101561159857600080fd5b600073ffffffffffffffffffffffffffffffffffffffff8316301415613d9657506001610a35565b60025460008054604080517f70a0823100000000000000000000000000000000000000000000000000000000815273ffffffffffffffffffffffffffffffffffffffff88811660048301529151613e4f94889493909316926370a0823192602480820193602093909283900390910190829087803b158015613e1757600080fd5b505af1158015613e2b573d6000803e3d6000fd5b505050506040513d6020811015613e4157600080fd5b50519063ffffffff614e0d16565b11159392505050565b600160005b818015613e6b575060065481105b156120205760008181526005602052604090205473ffffffffffffffffffffffffffffffffffffffff1615613f5a5760008181526005602090815260408083205481517f4a39314900000000000000000000000000000000000000000000000000000000815273ffffffffffffffffffffffffffffffffffffffff8a8116600483015289811660248301526044820189905292519290911693634a3931499360648084019491939192918390030190829087803b158015613f2b57600080fd5b505af1158015613f3f573d6000803e3d6000fd5b505050506040513d6020811015613f5557600080fd5b505191505b600101613e5d565b6060610a358273ffffffffffffffffffffffffffffffffffffffff1661422c565b5490565b5490565b60008073ffffffffffffffffffffffffffffffffffffffff83161515613fb45760009150613fbf565b823b90506000811191505b50919050565b6040805173ffffffffffffffffffffffffffffffffffffffff83166024808301919091528251808303909101815260449091019091526020810180517bffffffffffffffffffffffffffffffffffffffffffffffffffffffff167f70a082310000000000000000000000000000000000000000000000000000000017905260009081806140528684614eb2565b60408051808201909152601c81527f534146455f4552435f32305f42414c414e43455f524556455254454400000000602082015291935091508215156140f4576040517f08c379a000000000000000000000000000000000000000000000000000000000815260040180806020018281038252838181518152602001915080519060200190808383600083811015610b11578181015183820152602001610af9565b5095945050505050565b6040805173ffffffffffffffffffffffffffffffffffffffff8416602482015260448082018490528251808303909101815260649091019091526020810180517bffffffffffffffffffffffffffffffffffffffffffffffffffffffff167fa9059cbb0000000000000000000000000000000000000000000000000000000017905260009061418d8582614ee3565b95945050505050565b6141a282600083613e58565b5060008054604080517fd3ce77fe00000000000000000000000000000000000000000000000000000000815273ffffffffffffffffffffffffffffffffffffffff8681166004830152602482018690529151919092169263d3ce77fe92604480820193602093909283900390910190829087803b158015613d4457600080fd5b8051602002815290565b604080516001808252818301909252606091602080830190803883390190505090508181600081518110151561425e57fe5b60209081029091010152919050565b6000614277610a3b565b8015610a35575060008054604080517f70a0823100000000000000000000000000000000000000000000000000000000815273ffffffffffffffffffffffffffffffffffffffff8681166004830152915191909216916370a0823191602480830192602092919082900301818787803b1580156142f357600080fd5b505af1158015614307573d6000803e3d6000fd5b505050506040513d602081101561431d57600080fd5b50511192915050565b6060600080606080614336610a3b565b60408051808201909152601481527f494e49545f4e4f545f494e495449414c495a454400000000000000000000000060208201529015156143d3576040517f08c379a000000000000000000000000000000000000000000000000000000000815260040180806020018281038252838181518152602001915080519060200190808383600083811015610b11578181015183820152602001610af9565b506000806143df6124ff565b91506143e96119bd565b90506143f48a6110c1565b60408051808201909152601b81527f45564d52554e5f4558454355544f525f554e415641494c41424c450000000000602082015290965073ffffffffffffffffffffffffffffffffffffffff871615156144aa576040517f08c379a000000000000000000000000000000000000000000000000000000000815260040180806020018281038252838181518152602001915080519060200190808383600083811015610b11578181015183820152602001610af9565b506040516060602482019081528b5160848301528b517f279cea3500000000000000000000000000000000000000000000000000000000975087928d928d928d9282916044820191606481019160a490910190602089019080838360005b83811015614520578181015183820152602001614508565b50505050905090810190601f16801561454d5780820380516001836020036101000a031916815260200191505b50848103835286518152865160209182019188019080838360005b83811015614580578181015183820152602001614568565b50505050905090810190601f1680156145ad5780820380516001836020036101000a031916815260200191505b508481038252855181528551602091820191808801910280838360005b838110156145e25781810151838201526020016145ca565b505050509050019650505050505050604051602081830303815290604052907bffffffffffffffffffffffffffffffffffffffffffffffffffffffff19166020820180517bffffffffffffffffffffffffffffffffffffffffffffffffffffffff83818316178352505050509350600080855160208701895af460405193508080156146e757603f3d1180156146855760203d03806020883e86016040526146e1565b7f08c379a000000000000000000000000000000000000000000000000000000000865260206004870152601e60248701527f45564d52554e5f4558454355544f525f494e56414c49445f52455455524e00006044870152606486fd5b506146f0565b3d6000863e3d85fd5b50508573ffffffffffffffffffffffffffffffffffffffff167f5229a5dba83a54ae8cb5b51bdd6de9474cacbe9dd332f5185f3a4f4f2e3f4ad98b8b8660405180806020018060200180602001848103845287818151815260200191508051906020019080838360005b8381101561477257818101518382015260200161475a565b50505050905090810190601f16801561479f5780820380516001836020036101000a031916815260200191505b50848103835286518152865160209182019188019080838360005b838110156147d25781810151838201526020016147ba565b50505050905090810190601f1680156147ff5780820380516001836020036101000a031916815260200191505b50848103825285518152855160209182019187019080838360005b8381101561483257818101518382015260200161481a565b50505050905090810190601f16801561485f5780820380516001836020036101000a031916815260200191505b50965050505050505060405180910390a28296508173ffffffffffffffffffffffffffffffffffffffff166148926124ff565b73ffffffffffffffffffffffffffffffffffffffff16146040805190810160405280601f81526020017f45564d52554e5f50524f5445435445445f53544154455f4d4f44494649454400815250901515614948576040517f08c379a000000000000000000000000000000000000000000000000000000000815260040180806020018281038252838181518152602001915080519060200190808383600083811015610b11578181015183820152602001610af9565b50806149526119bd565b60408051808201909152601f81527f45564d52554e5f50524f5445435445445f53544154455f4d4f44494649454400602082015291146149ee576040517f08c379a000000000000000000000000000000000000000000000000000000000815260040180806020018281038252838181518152602001915080519060200190808383600083811015610b11578181015183820152602001610af9565b505050505050509392505050565b600160005b818015614a0f575060065481105b156120205760008181526005602052604090205473ffffffffffffffffffffffffffffffffffffffff1615614afe5760008181526005602090815260408083205481517fda682aeb00000000000000000000000000000000000000000000000000000000815273ffffffffffffffffffffffffffffffffffffffff8a811660048301528981166024830152604482018990529251929091169363da682aeb9360648084019491939192918390030190829087803b158015614acf57600080fd5b505af1158015614ae3573d6000803e3d6000fd5b505050506040513d6020811015614af957600080fd5b505191505b600101614a01565b6040805173ffffffffffffffffffffffffffffffffffffffff85811660248301528416604482015260648082018490528251808303909101815260849091019091526020810180517bffffffffffffffffffffffffffffffffffffffffffffffffffffffff167f23b872dd00000000000000000000000000000000000000000000000000000000179052600090614b9d8682614ee3565b9695505050505050565b614baf611a4a565b60408051808201909152601881527f494e49545f414c52454144595f494e495449414c495a4544000000000000000060208201529015614c4b576040517f08c379a000000000000000000000000000000000000000000000000000000000815260040180806020018281038252838181518152602001915080519060200190808383600083811015610b11578181015183820152602001610af9565b50614c84614c57613850565b7febb05b386a8d34882b8711d156f463690983dc47815980fb82aeeff1aa43579e9063ffffffff614f3116565b565b600080828610614c9957600091506140f4565b83861015614ca9578691506140f4565b614cb9838663ffffffff614d0016565b614cd9614ccc888863ffffffff614d0016565b899063ffffffff614f3516565b811515614ce257fe5b049050614cf5878263ffffffff614d0016565b979650505050505050565b60408051808201909152601281527f4d4154485f5355425f554e444552464c4f5700000000000000000000000000006020820152600090819084841115614da3576040517f08c379a000000000000000000000000000000000000000000000000000000000815260040180806020018281038252838181518152602001915080519060200190808383600083811015610b11578181015183820152602001610af9565b505050808203805b5092915050565b604080516002808252606080830184529260208301908038833901905050905082816000815181101515614de257fe5b602090810290910101528051829082906001908110614dfd57fe5b6020908102909101015292915050565b60408051808201909152601181527f4d4154485f4144445f4f564552464c4f5700000000000000000000000000000060208201526000908383019084821015612020576040517f08c379a000000000000000000000000000000000000000000000000000000000815260040180806020018281038252838181518152602001915080519060200190808383600083811015610b11578181015183820152602001610af9565b6000806000806040516020818751602089018a5afa92506000831115614ed757805191505b50909590945092505050565b6000806040516020818551602087016000895af16000811115614f27573d8015614f145760208114614f1d57614f25565b60019350614f25565b600183511493505b505b5090949350505050565b9055565b600080831515614f485760009150614dab565b50828202828482811515614f5857fe5b60408051808201909152601181527f4d4154485f4d554c5f4f564552464c4f5700000000000000000000000000000060208201529291900414612020576040517f08c379a000000000000000000000000000000000000000000000000000000000815260040180806020018281038252838181518152602001915080519060200190808383600083811015610b11578181015183820152602001610af95600a165627a7a723058206758ed1f40e7606a234de7a9ea8f8001848987b858d77ae0f37f6502fa596c180029ebb05b386a8d34882b8711d156f463690983dc47815980fb82aeeff1aa43579e",
  "devdoc": {
    "methods": {
      "allowRecoverability(address)": {
        "details": "Disable recovery escape hatch for own token,     as the it has the concept of issuing tokens without assigning them"
      },
      "assign(address,uint256)": {
        "params": {
          "_amount": "Number of tokens transferred",
          "_receiver": "The address receiving the tokens"
        }
      },
      "assignVested(address,uint256,uint64,uint64,uint64,bool)": {
        "params": {
          "_amount": "Number of tokens vested",
          "_cliff": "Date when the initial portion of tokens are transferable",
          "_receiver": "The address receiving the tokens, cannot be Token Manager itself",
          "_revokable": "Whether the vesting can be revoked by the Token Manager",
          "_start": "Date the vesting calculations start",
          "_vested": "Date when all tokens are transferable"
        }
      },
      "burn(address,uint256)": {
        "params": {
          "_amount": "Number of tokens being burned",
          "_holder": "Holder of tokens being burned"
        }
      },
      "canPerform(address,bytes32,uint256[])": {
        "details": "Check whether an action can be performed by a sender for a particular role on this app",
        "params": {
          "_params": "Permission params for the role",
          "_role": "Role on this app",
          "_sender": "Sender of the call"
        },
        "return": "Boolean indicating whether the sender has the permissions to perform the action.        Always returns false if the app hasn't been initialized yet."
      },
      "changeTokenController(address)": {
        "params": {
          "_newController": "Address to transfer control of the token"
        }
      },
      "forward(bytes)": {
        "details": "IForwarder interface conformance. Forwards any token holder action.",
        "params": {
          "_evmScript": "Script being executed"
        }
      },
      "forwarderType()": {
        "details": "Tell the forwarder type",
        "return": "Always 1 (ForwarderType.NO_CONTEXT)"
      },
      "getInitializationBlock()": {
        "return": "Block number in which the contract was initialized"
      },
      "getRecoveryVault()": {
        "details": "Get the recovery vault for the app",
        "return": "Recovery vault address for the app"
      },
      "hasInitialized()": {
        "return": "Whether the contract has been initialized by the time of the current block"
      },
      "initialize(address,address,bool,uint256)": {
        "params": {
          "_maxAccountTokens": "Maximum amount of tokens an account can have (0 for infinite tokens)",
          "_token": "MiniMeToken address for the managed token (Token Manager instance must be already set as the token controller)",
          "_transferable": "whether the token can be transferred by holders",
          "_wrappableToken": "Token which can be wrapped/unwrapped to generate an equal number of the MiniMeToken. Set to address(0) to disable."
        }
      },
      "issue(uint256)": {
        "params": {
          "_amount": "Number of tokens minted"
        }
      },
      "mint(address,uint256)": {
        "params": {
          "_amount": "Number of tokens minted",
          "_receiver": "The address receiving the tokens, cannot be the Token Manager itself (use `issue()` instead)"
        }
      },
      "onApprove(address,address,uint256)": {
        "details": "Notifies the controller about an approval allowing the controller to react if desired     Initialization check is implicitly provided by `onlyToken()`.",
        "return": "False if the controller does not authorize the approval"
      },
      "proxyPayment(address)": {
        "details": "Called when ether is sent to the MiniMe Token contract     Initialization check is implicitly provided by `onlyToken()`.",
        "return": "True if the ether is accepted, false for it to throw"
      },
      "registerHook(address)": {
        "params": {
          "_hook": "Contract that will be used as Token Manager hook"
        }
      },
      "revokeHook(uint256)": {
        "params": {
          "_hookId": "Position of the hook to be removed"
        }
      },
      "revokeVesting(address,uint256)": {
        "params": {
          "_holder": "Address whose vesting to revoke",
          "_vestingId": "Numeric id of the vesting"
        }
      },
      "supportsInterface(bytes4)": {
        "details": "Query if a contract implements a certain interface",
        "params": {
          "_interfaceId": "The interface identifier being queried, as specified in ERC-165"
        },
        "return": "True if the contract implements the requested interface and if its not 0xffffffff, false otherwise"
      },
      "transferToVault(address)": {
        "params": {
          "_token": "Token balance to be sent to recovery vault."
        }
      },
      "unwrap(uint256)": {
        "params": {
          "_amount": "Amount of tokens to unwrap"
        }
      },
      "wrap(uint256)": {
        "params": {
          "_amount": "Amount of tokens to wrap"
        }
      }
    }
  },
  "userdoc": {
    "methods": {
      "assign(address,uint256)": {
        "notice": "Assign `@tokenAmount(self.token(): address, _amount, false)` tokens to `_receiver` from the Token Manager's holdings"
      },
      "assignVested(address,uint256,uint64,uint64,uint64,bool)": {
        "notice": "Assign `@tokenAmount(self.token(): address, _amount, false)` tokens to `_receiver` from the Token Manager's holdings with a `_revokable : 'revokable' : ''` vesting starting at `@formatDate(_start)`, cliff at `@formatDate(_cliff)` (first portion of tokens transferable), and completed vesting at `@formatDate(_vested)` (all tokens transferable)"
      },
      "burn(address,uint256)": {
        "notice": "Burn `@tokenAmount(self.token(): address, _amount, false)` tokens from `_holder`"
      },
      "changeTokenController(address)": {
        "notice": "Change the token controller to `_newController`"
      },
      "forward(bytes)": {
        "notice": "Execute desired action as a token holder"
      },
      "initialize(address,address,bool,uint256)": {
        "notice": "Initialize Token Manager for `_token.symbol(): string`, whose tokens are `_transferable ? '' : 'not'` transferable`_maxAccountTokens > 0 ? ' and limited to a maximum of ' + @tokenAmount(_token, _maxAccountTokens, false) + ' per account' : ''`"
      },
      "issue(uint256)": {
        "notice": "Mint `@tokenAmount(self.token(): address, _amount, false)` tokens for the Token Manager"
      },
      "mint(address,uint256)": {
        "notice": "Mint `@tokenAmount(self.token(): address, _amount, false)` tokens for `_receiver`"
      },
      "registerHook(address)": {
        "notice": "Create a new Token Manager hook for `_hook`"
      },
      "revokeHook(uint256)": {
        "notice": "Revoke Token Manager hook #`_hookId`"
      },
      "revokeVesting(address,uint256)": {
        "notice": "Revoke vesting #`_vestingId` from `_holder`, returning unvested tokens to the Token Manager"
      },
      "transferToVault(address)": {
        "notice": "Send funds to recovery Vault. This contract should never receive funds,        but in case it does, this function allows one to recover them."
      },
      "unwrap(uint256)": {
        "notice": "Unwrap @tokenAmount(self.token(): address, _amount, false) to receive @tokenAmount(self.wrappableToken(): address, _amount, false)"
      },
      "wrap(uint256)": {
        "notice": "Wrap @tokenAmount(self.wrappableToken(): address, _amount, false) to receive @tokenAmount(self.token(): address, _amount, false)"
      }
    }
  }
}