{
  "address": "0x254CdF2870dE64E67D95a4e4a3C8D5C9EFcfF597",
  "abi": [
    {
      "constant": true,
      "inputs": [
        {
          "name": "_interfaceId",
          "type": "bytes4"
        }
      ],
      "name": "supportsInterface",
      "outputs": [
        {
          "name": "",
          "type": "bool"
        }
      ],
      "payable": false,
      "stateMutability": "pure",
      "type": "function"
    },
    {
      "constant": true,
      "inputs": [],
      "name": "hasInitialized",
      "outputs": [
        {
          "name": "",
          "type": "bool"
        }
      ],
      "payable": false,
      "stateMutability": "view",
      "type": "function"
    },
    {
      "constant": true,
      "inputs": [],
      "name": "MAX_VESTINGS_PER_ADDRESS",
      "outputs": [
        {
          "name": "",
          "type": "uint256"
        }
      ],
      "payable": false,
      "stateMutability": "view",
      "type": "function"
    },
    {
      "constant": true,
      "inputs": [
        {
          "name": "_holder",
          "type": "address"
        }
      ],
      "name": "spendableBalanceOf",
      "outputs": [
        {
          "name": "",
          "type": "uint256"
        }
      ],
      "payable": false,
      "stateMutability": "view",
      "type": "function"
    },
    {
      "constant": true,
      "inputs": [],
      "name": "wrappableToken",
      "outputs": [
        {
          "name": "",
          "type": "address"
        }
      ],
      "payable": false,
      "stateMutability": "view",
      "type": "function"
    },
    {
      "constant": false,
      "inputs": [
        {
          "name": "_receiver",
          "type": "address"
        },
        {
          "name": "_amount",
          "type": "uint256"
        },
        {
          "name": "_start",
          "type": "uint64"
        },
        {
          "name": "_cliff",
          "type": "uint64"
        },
        {
          "name": "_vested",
          "type": "uint64"
        },
        {
          "name": "_revokable",
          "type": "bool"
        }
      ],
      "name": "assignVested",
      "outputs": [
        {
          "name": "",
          "type": "uint256"
        }
      ],
      "payable": false,
      "stateMutability": "nonpayable",
      "type": "function"
    },
    {
      "constant": true,
      "inputs": [
        {
          "name": "_script",
          "type": "bytes"
        }
      ],
      "name": "getEVMScriptExecutor",
      "outputs": [
        {
          "name": "",
          "type": "address"
        }
      ],
      "payable": false,
      "stateMutability": "view",
      "type": "function"
    },
    {
      "constant": true,
      "inputs": [],
      "name": "getRecoveryVault",
      "outputs": [
        {
          "name": "",
          "type": "address"
        }
      ],
      "payable": false,
      "stateMutability": "view",
      "type": "function"
    },
    {
      "constant": true,
      "inputs": [
        {
          "name": "_recipient",
          "type": "address"
        },
        {
          "name": "_vestingId",
          "type": "uint256"
        }
      ],
      "name": "getVesting",
      "outputs": [
        {
          "name": "amount",
          "type": "uint256"
        },
        {
          "name": "start",
          "type": "uint64"
        },
        {
          "name": "cliff",
          "type": "uint64"
        },
        {
          "name": "vesting",
          "type": "uint64"
        },
        {
          "name": "revokable",
          "type": "bool"
        }
      ],
      "payable": false,
      "stateMutability": "view",
      "type": "function"
    },
    {
      "constant": false,
      "inputs": [
        {
          "name": "_receiver",
          "type": "address"
        },
        {
          "name": "_amount",
          "type": "uint256"
        }
      ],
      "name": "mint",
      "outputs": [],
      "payable": false,
      "stateMutability": "nonpayable",
      "type": "function"
    },
    {
      "constant": true,
      "inputs": [],
      "name": "CHANGE_CONTROLLER_ROLE",
      "outputs": [
        {
          "name": "",
          "type": "bytes32"
        }
      ],
      "payable": false,
      "stateMutability": "view",
      "type": "function"
    },
    {
      "constant": false,
      "inputs": [
        {
          "name": "_from",
          "type": "address"
        },
        {
          "name": "_to",
          "type": "address"
        },
        {
          "name": "_amount",
          "type": "uint256"
        }
      ],
      "name": "onTransfer",
      "outputs": [
        {
          "name": "",
          "type": "bool"
        }
      ],
      "payable": false,
      "stateMutability": "nonpayable",
      "type": "function"
    },
    {
      "constant": false,
      "inputs": [
        {
          "name": "_hook",
          "type": "address"
        }
      ],
      "name": "registerHook",
      "outputs": [
        {
          "name": "",
          "type": "uint256"
        }
      ],
      "payable": false,
      "stateMutability": "nonpayable",
      "type": "function"
    },
    {
      "constant": true,
      "inputs": [
        {
          "name": "_holder",
          "type": "address"
        },
        {
          "name": "_time",
          "type": "uint256"
        }
      ],
      "name": "transferableBalance",
      "outputs": [
        {
          "name": "",
          "type": "uint256"
        }
      ],
      "payable": false,
      "stateMutability": "view",
      "type": "function"
    },
    {
      "constant": true,
      "inputs": [],
      "name": "hooksLength",
      "outputs": [
        {
          "name": "",
          "type": "uint256"
        }
      ],
      "payable": false,
      "stateMutability": "view",
      "type": "function"
    },
    {
      "constant": true,
      "inputs": [
        {
          "name": "_token",
          "type": "address"
        }
      ],
      "name": "allowRecoverability",
      "outputs": [
        {
          "name": "",
          "type": "bool"
        }
      ],
      "payable": false,
      "stateMutability": "view",
      "type": "function"
    },
    {
      "constant": true,
      "inputs": [],
      "name": "appId",
      "outputs": [
        {
          "name": "",
          "type": "bytes32"
        }
      ],
      "payable": false,
      "stateMutability": "view",
      "type": "function"
    },
    {
      "constant": true,
      "inputs": [],
      "name": "ISSUE_ROLE",
      "outputs": [
        {
          "name": "",
          "type": "bytes32"
        }
      ],
      "payable": false,
      "stateMutability": "view",
      "type": "function"
    },
    {
      "constant": true,
      "inputs": [
        {
          "name": "",
          "type": "uint256"
        }
      ],
      "name": "hooks",
      "outputs": [
        {
          "name": "",
          "type": "address"
        }
      ],
      "payable": false,
      "stateMutability": "view",
      "type": "function"
    },
    {
      "constant": true,
      "inputs": [],
      "name": "getInitializationBlock",
      "outputs": [
        {
          "name": "",
          "type": "uint256"
        }
      ],
      "payable": false,
      "stateMutability": "view",
      "type": "function"
    },
    {
      "constant": true,
      "inputs": [
        {
          "name": "",
          "type": "address"
        }
      ],
      "name": "vestingsLengths",
      "outputs": [
        {
          "name": "",
          "type": "uint256"
        }
      ],
      "payable": false,
      "stateMutability": "view",
      "type": "function"
    },
    {
      "constant": false,
      "inputs": [
        {
          "name": "_token",
          "type": "address"
        }
      ],
      "name": "transferToVault",
      "outputs": [],
      "payable": false,
      "stateMutability": "nonpayable",
      "type": "function"
    },
    {
      "constant": false,
      "inputs": [
        {
          "name": "_holder",
          "type": "address"
        },
        {
          "name": "_amount",
          "type": "uint256"
        }
      ],
      "name": "burn",
      "outputs": [],
      "payable": false,
      "stateMutability": "nonpayable",
      "type": "function"
    },
    {
      "constant": true,
      "inputs": [
        {
          "name": "_sender",
          "type": "address"
        },
        {
          "name": "_role",
          "type": "bytes32"
        },
        {
          "name": "_params",
          "type": "uint256[]"
        }
      ],
      "name": "canPerform",
      "outputs": [
        {
          "name": "",
          "type": "bool"
        }
      ],
      "payable": false,
      "stateMutability": "view",
      "type": "function"
    },
    {
      "constant": true,
      "inputs": [],
      "name": "getEVMScriptRegistry",
      "outputs": [
        {
          "name": "",
          "type": "address"
        }
      ],
      "payable": false,
      "stateMutability": "view",
      "type": "function"
    },
    {
      "constant": true,
      "inputs": [],
      "name": "ASSIGN_ROLE",
      "outputs": [
        {
          "name": "",
          "type": "bytes32"
        }
      ],
      "payable": false,
      "stateMutability": "view",
      "type": "function"
    },
    {
      "constant": false,
      "inputs": [
        {
          "name": "_hookId",
          "type": "uint256"
        }
      ],
      "name": "revokeHook",
      "outputs": [],
      "payable": false,
      "stateMutability": "nonpayable",
      "type": "function"
    },
    {
      "constant": true,
      "inputs": [],
      "name": "BURN_ROLE",
      "outputs": [
        {
          "name": "",
          "type": "bytes32"
        }
      ],
      "payable": false,
      "stateMutability": "view",
      "type": "function"
    },
    {
      "constant": false,
      "inputs": [
        {
          "name": "_receiver",
          "type": "address"
        },
        {
          "name": "_amount",
          "type": "uint256"
        }
      ],
      "name": "assign",
      "outputs": [],
      "payable": false,
      "stateMutability": "nonpayable",
      "type": "function"
    },
    {
      "constant": false,
      "inputs": [
        {
          "name": "_amount",
          "type": "uint256"
        }
      ],
      "name": "issue",
      "outputs": [],
      "payable": false,
      "stateMutability": "nonpayable",
      "type": "function"
    },
    {
      "constant": true,
      "inputs": [],
      "name": "kernel",
      "outputs": [
        {
          "name": "",
          "type": "address"
        }
      ],
      "payable": false,
      "stateMutability": "view",
      "type": "function"
    },
    {
      "constant": false,
      "inputs": [
        {
          "name": "_newController",
          "type": "address"
        }
      ],
      "name": "changeTokenController",
      "outputs": [],
      "payable": false,
      "stateMutability": "nonpayable",
      "type": "function"
    },
    {
      "constant": false,
      "inputs": [
        {
          "name": "_holder",
          "type": "address"
        },
        {
          "name": "_spender",
          "type": "address"
        },
        {
          "name": "_amount",
          "type": "uint256"
        }
      ],
      "name": "onApprove",
      "outputs": [
        {
          "name": "",
          "type": "bool"
        }
      ],
      "payable": false,
      "stateMutability": "nonpayable",
      "type": "function"
    },
    {
      "constant": false,
      "inputs": [
        {
          "name": "_amount",
          "type": "uint256"
        }
      ],
      "name": "unwrap",
      "outputs": [],
      "payable": false,
      "stateMutability": "nonpayable",
      "type": "function"
    },
    {
      "constant": true,
      "inputs": [],
      "name": "isPetrified",
      "outputs": [
        {
          "name": "",
          "type": "bool"
        }
      ],
      "payable": false,
      "stateMutability": "view",
      "type": "function"
    },
    {
      "constant": true,
      "inputs": [],
      "name": "MINT_ROLE",
      "outputs": [
        {
          "name": "",
          "type": "bytes32"
        }
      ],
      "payable": false,
      "stateMutability": "view",
      "type": "function"
    },
    {
      "constant": false,
      "inputs": [
        {
          "name": "_amount",
          "type": "uint256"
        }
      ],
      "name": "wrap",
      "outputs": [],
      "payable": false,
      "stateMutability": "nonpayable",
      "type": "function"
    },
    {
      "constant": true,
      "inputs": [],
      "name": "maxAccountTokens",
      "outputs": [
        {
          "name": "",
          "type": "uint256"
        }
      ],
      "payable": false,
      "stateMutability": "view",
      "type": "function"
    },
    {
      "constant": true,
      "inputs": [],
      "name": "REVOKE_VESTINGS_ROLE",
      "outputs": [
        {
          "name": "",
          "type": "bytes32"
        }
      ],
      "payable": false,
      "stateMutability": "view",
      "type": "function"
    },
    {
      "constant": false,
      "inputs": [
        {
          "name": "_token",
          "type": "address"
        },
        {
          "name": "_wrappableToken",
          "type": "address"
        },
        {
          "name": "_transferable",
          "type": "bool"
        },
        {
          "name": "_maxAccountTokens",
          "type": "uint256"
        }
      ],
      "name": "initialize",
      "outputs": [],
      "payable": false,
      "stateMutability": "nonpayable",
      "type": "function"
    },
    {
      "constant": false,
      "inputs": [
        {
          "name": "",
          "type": "address"
        }
      ],
      "name": "proxyPayment",
      "outputs": [
        {
          "name": "",
          "type": "bool"
        }
      ],
      "payable": true,
      "stateMutability": "payable",
      "type": "function"
    },
    {
      "constant": true,
      "inputs": [],
      "name": "SET_HOOK_ROLE",
      "outputs": [
        {
          "name": "",
          "type": "bytes32"
        }
      ],
      "payable": false,
      "stateMutability": "view",
      "type": "function"
    },
    {
      "constant": true,
      "inputs": [],
      "name": "WRAP_TOKEN_ROLE",
      "outputs": [
        {
          "name": "",
          "type": "bytes32"
        }
      ],
      "payable": false,
      "stateMutability": "view",
      "type": "function"
    },
    {
      "constant": false,
      "inputs": [
        {
          "name": "_holder",
          "type": "address"
        },
        {
          "name": "_vestingId",
          "type": "uint256"
        }
      ],
      "name": "revokeVesting",
      "outputs": [],
      "payable": false,
      "stateMutability": "nonpayable",
      "type": "function"
    },
    {
      "constant": true,
      "inputs": [],
      "name": "token",
      "outputs": [
        {
          "name": "",
          "type": "address"
        }
      ],
      "payable": false,
      "stateMutability": "view",
      "type": "function"
    },
    {
      "anonymous": false,
      "inputs": [
        {
          "indexed": false,
          "name": "token",
          "type": "address"
        },
        {
          "indexed": false,
          "name": "wrappableToken",
          "type": "address"
        }
      ],
      "name": "TokenManagerInitialized",
      "type": "event"
    },
    {
      "anonymous": false,
      "inputs": [
        {
          "indexed": true,
          "name": "receiver",
          "type": "address"
        },
        {
          "indexed": false,
          "name": "vestingId",
          "type": "uint256"
        },
        {
          "indexed": false,
          "name": "amount",
          "type": "uint256"
        }
      ],
      "name": "NewVesting",
      "type": "event"
    },
    {
      "anonymous": false,
      "inputs": [
        {
          "indexed": true,
          "name": "receiver",
          "type": "address"
        },
        {
          "indexed": false,
          "name": "vestingId",
          "type": "uint256"
        },
        {
          "indexed": false,
          "name": "nonVestedAmount",
          "type": "uint256"
        }
      ],
      "name": "RevokeVesting",
      "type": "event"
    },
    {
      "anonymous": false,
      "inputs": [
        {
          "indexed": true,
          "name": "executor",
          "type": "address"
        },
        {
          "indexed": false,
          "name": "script",
          "type": "bytes"
        },
        {
          "indexed": false,
          "name": "input",
          "type": "bytes"
        },
        {
          "indexed": false,
          "name": "returnData",
          "type": "bytes"
        }
      ],
      "name": "ScriptResult",
      "type": "event"
    },
    {
      "anonymous": false,
      "inputs": [
        {
          "indexed": true,
          "name": "vault",
          "type": "address"
        },
        {
          "indexed": true,
          "name": "token",
          "type": "address"
        },
        {
          "indexed": false,
          "name": "amount",
          "type": "uint256"
        }
      ],
      "name": "RecoverToVault",
      "type": "event"
    }
  ],
  "transactionHash": "0x1807818171c08e218995a8417ae9611aa8e03f6341e0349f15acf69027a9195c",
  "args": [],
  "numDeployments": 1,
  "solcInputHash": "acb058d8456f1bb8fa067f7d1cba20e7",
  "bytecode": "0x6080604052620000176401000000006200001d810204565b6200023b565b6200003064010000000062000125810204565b60408051808201909152601881527f494e49545f414c52454144595f494e495449414c495a45440000000000000000602082015290156200010c576040517f08c379a00000000000000000000000000000000000000000000000000000000081526004018080602001828103825283818151815260200191508051906020019080838360005b83811015620000d0578181015183820152602001620000b6565b50505050905090810190601f168015620000fe5780820380516001836020036101000a031916815260200191505b509250505060405180910390fd5b506200012360001964010000000062000154810204565b565b60006200014f60008051602062004a4383398151915264010000000062003ee76200023382021704565b905090565b6200016764010000000062000125810204565b60408051808201909152601881527f494e49545f414c52454144595f494e495449414c495a454400000000000000006020820152901562000206576040517f08c379a000000000000000000000000000000000000000000000000000000000815260040180806020018281038252838181518152602001915080519060200190808383600083811015620000d0578181015183820152602001620000b6565b506200023060008051602062004a4383398151915282640100000000620047066200023782021704565b50565b5490565b9055565b6147f8806200024b6000396000f3006080604052600436106102245763ffffffff7c010000000000000000000000000000000000000000000000000000000060003504166301ffc9a781146102295780630803fac0146102775780630db3971b1461028c5780630f8f8b83146102b35780631dfab035146102e157806321cb18cd1461031f5780632914b9bd1461036e57806332f0a3b5146103c75780633e05a36d146103dc57806340c10f19146104465780634a191c0d146104795780634a3931491461048e5780636354b661146104c557806372f8393c146104f357806374c46e43146105245780637e7db6e11461053957806380afdea814610567578063856222f11461057c578063864c17d7146105915780638b3dd749146105a957806397f2562a146105be5780639d4941d8146105ec5780639dc29fac1461061a578063a1658fad1461064b578063a479e508146106bf578063a51d9a8e146106d4578063b80fc15a146106e9578063b930908f14610701578063be76048814610716578063cc872b6614610747578063d4aae0c41461075f578063d6c8976b14610774578063da682aeb146107a2578063de0e9a3e146107d9578063de4796ed146107f1578063e9a9c85014610806578063ea598cb01461081b578063ecfda43214610833578063edc168f114610848578063effb95231461085d578063f48c305414610899578063f68e7304146108ba578063f8a4cd30146108cf578063fa6799f2146108e4578063fc0c546a14610915575b600080fd5b34801561023557600080fd5b506102637fffffffff000000000000000000000000000000000000000000000000000000006004351661092a565b604080519115158252519081900360200190f35b34801561028357600080fd5b50610263610987565b34801561029857600080fd5b506102a16109b0565b60408051918252519081900360200190f35b3480156102bf57600080fd5b506102a173ffffffffffffffffffffffffffffffffffffffff600435166109b5565b3480156102ed57600080fd5b506102f6610aaa565b6040805173ffffffffffffffffffffffffffffffffffffffff9092168252519081900360200190f35b34801561032b57600080fd5b506102a173ffffffffffffffffffffffffffffffffffffffff6004351660243567ffffffffffffffff6044358116906064358116906084351660a4351515610ac6565b34801561037a57600080fd5b506040805160206004803580820135601f81018490048402850184019095528484526102f694369492936024939284019190819084018382808284375094975061100d9650505050505050565b3480156103d357600080fd5b506102f6611119565b3480156103e857600080fd5b5061040d73ffffffffffffffffffffffffffffffffffffffff600435166024356111b7565b6040805195865267ffffffffffffffff948516602087015292841685840152921660608401529015156080830152519081900360a00190f35b34801561045257600080fd5b5061047773ffffffffffffffffffffffffffffffffffffffff60043516602435611340565b005b34801561048557600080fd5b506102a16114ea565b34801561049a57600080fd5b5061026373ffffffffffffffffffffffffffffffffffffffff6004358116906024351660443561151f565b3480156104d157600080fd5b506102a173ffffffffffffffffffffffffffffffffffffffff6004351661161a565b3480156104ff57600080fd5b506102a173ffffffffffffffffffffffffffffffffffffffff600435166024356117e3565b34801561053057600080fd5b506102a1611895565b34801561054557600080fd5b5061026373ffffffffffffffffffffffffffffffffffffffff6004351661189b565b34801561057357600080fd5b506102a1611904565b34801561058857600080fd5b506102a1611934565b34801561059d57600080fd5b506102f6600435611969565b3480156105b557600080fd5b506102a1611991565b3480156105ca57600080fd5b506102a173ffffffffffffffffffffffffffffffffffffffff600435166119bc565b3480156105f857600080fd5b5061047773ffffffffffffffffffffffffffffffffffffffff600435166119ce565b34801561062657600080fd5b5061047773ffffffffffffffffffffffffffffffffffffffff60043516602435611cf0565b34801561065757600080fd5b50604080516020600460443581810135838102808601850190965280855261026395833573ffffffffffffffffffffffffffffffffffffffff16956024803596369695606495939492019291829185019084908082843750949750611ddf9650505050505050565b3480156106cb57600080fd5b506102f6611f6f565b3480156106e057600080fd5b506102a1612031565b3480156106f557600080fd5b50610477600435612066565b34801561070d57600080fd5b506102a161221c565b34801561072257600080fd5b5061047773ffffffffffffffffffffffffffffffffffffffff60043516602435612251565b34801561075357600080fd5b50610477600435612340565b34801561076b57600080fd5b506102f6612433565b34801561078057600080fd5b5061047773ffffffffffffffffffffffffffffffffffffffff6004351661245e565b3480156107ae57600080fd5b5061026373ffffffffffffffffffffffffffffffffffffffff600435811690602435166044356125d0565b3480156107e557600080fd5b5061047760043561269b565b3480156107fd57600080fd5b5061026361296c565b34801561081257600080fd5b506102a161299d565b34801561082757600080fd5b506104776004356129d2565b34801561083f57600080fd5b506102a1612cdf565b34801561085457600080fd5b506102a1612ce5565b34801561086957600080fd5b5061047773ffffffffffffffffffffffffffffffffffffffff600435811690602435166044351515606435612d1a565b61026373ffffffffffffffffffffffffffffffffffffffff60043516613147565b3480156108c657600080fd5b506102a1613207565b3480156108db57600080fd5b506102a161323c565b3480156108f057600080fd5b5061047773ffffffffffffffffffffffffffffffffffffffff60043516602435613271565b34801561092157600080fd5b506102f661374e565b60006109358261376a565b8061098157507fffffffff0000000000000000000000000000000000000000000000000000000082167f54053e6c00000000000000000000000000000000000000000000000000000000145b92915050565b600080610992611991565b905080158015906109aa5750806109a76137b4565b10155b91505090565b603281565b60006109bf610987565b60408051808201909152601481527f494e49545f4e4f545f494e495449414c495a45440000000000000000000000006020820152901515610a98576040517f08c379a00000000000000000000000000000000000000000000000000000000081526004018080602001828103825283818151815260200191508051906020019080838360005b83811015610a5d578181015183820152602001610a45565b50505050905090810190601f168015610a8a5780820380516001836020036101000a031916815260200191505b509250505060405180910390fd5b5061098182610aa56137b8565b6137bc565b60015473ffffffffffffffffffffffffffffffffffffffff1681565b604080517f41535349474e5f524f4c450000000000000000000000000000000000000000008152905190819003600b0190206000908190610b07898961395c565b610b12338383611ddf565b60408051808201909152600f81527f4150505f415554485f4641494c454400000000000000000000000000000000006020820152901515610baf576040517f08c379a000000000000000000000000000000000000000000000000000000000815260040180806020018281038252838181518152602001915080519060200190808383600083811015610a5d578181015183820152602001610a45565b5060408051808201909152601081527f544d5f56455354494e475f544f5f544d00000000000000000000000000000000602082015273ffffffffffffffffffffffffffffffffffffffff8b16301415610c64576040517f08c379a000000000000000000000000000000000000000000000000000000000815260040180806020018281038252838181518152602001915080519060200190808383600083811015610a5d578181015183820152602001610a45565b5073ffffffffffffffffffffffffffffffffffffffff8a16600090815260046020908152604091829020548251808401909352601483527f544d5f544f4f5f4d414e595f56455354494e475300000000000000000000000091830191909152603211610d2c576040517f08c379a000000000000000000000000000000000000000000000000000000000815260040180806020018281038252838181518152602001915080519060200190808383600083811015610a5d578181015183820152602001610a45565b508667ffffffffffffffff168867ffffffffffffffff1611158015610d6557508567ffffffffffffffff168767ffffffffffffffff1611155b60408051808201909152601381527f544d5f57524f4e475f434c4946465f44415445000000000000000000000000006020820152901515610e02576040517f08c379a000000000000000000000000000000000000000000000000000000000815260040180806020018281038252838181518152602001915080519060200190808383600083811015610a5d578181015183820152602001610a45565b50600460008b73ffffffffffffffffffffffffffffffffffffffff1673ffffffffffffffffffffffffffffffffffffffff168152602001908152602001600020600081548092919060010191905055925060a0604051908101604052808a81526020018967ffffffffffffffff1681526020018867ffffffffffffffff1681526020018767ffffffffffffffff168152602001861515815250600360008c73ffffffffffffffffffffffffffffffffffffffff1673ffffffffffffffffffffffffffffffffffffffff16815260200190815260200160002060008581526020019081526020016000206000820151816000015560208201518160010160006101000a81548167ffffffffffffffff021916908367ffffffffffffffff16021790555060408201518160010160086101000a81548167ffffffffffffffff021916908367ffffffffffffffff16021790555060608201518160010160106101000a81548167ffffffffffffffff021916908367ffffffffffffffff16021790555060808201518160010160186101000a81548160ff021916908315150217905550905050610faf8a8a61397e565b60408051848152602081018b9052815173ffffffffffffffffffffffffffffffffffffffff8d16927f627ad26dcfe82ec79b33fda0ddd062f6fab9f4914acac8345f79090dfd86fb54928290030190a2509098975050505050505050565b6000611017611f6f565b73ffffffffffffffffffffffffffffffffffffffff166304bf2a7f836040518263ffffffff167c01000000000000000000000000000000000000000000000000000000000281526004018080602001828103825283818151815260200191508051906020019080838360005b8381101561109b578181015183820152602001611083565b50505050905090810190601f1680156110c85780820380516001836020036101000a031916815260200191505b5092505050602060405180830381600087803b1580156110e757600080fd5b505af11580156110fb573d6000803e3d6000fd5b505050506040513d602081101561111157600080fd5b505192915050565b6000611123612433565b73ffffffffffffffffffffffffffffffffffffffff166332f0a3b56040518163ffffffff167c0100000000000000000000000000000000000000000000000000000000028152600401602060405180830381600087803b15801561118657600080fd5b505af115801561119a573d6000803e3d6000fd5b505050506040513d60208110156111b057600080fd5b5051905090565b6000806000806000808787600460008373ffffffffffffffffffffffffffffffffffffffff1673ffffffffffffffffffffffffffffffffffffffff1681526020019081526020016000205481106040805190810160405280600d81526020017f544d5f4e4f5f56455354494e47000000000000000000000000000000000000008152509015156112a3576040517f08c379a000000000000000000000000000000000000000000000000000000000815260040180806020018281038252838181518152602001915080519060200190808383600083811015610a5d578181015183820152602001610a45565b5050505073ffffffffffffffffffffffffffffffffffffffff969096166000908152600360209081526040808320978352969052949094208054600190910154909667ffffffffffffffff8083169750680100000000000000008304811696507001000000000000000000000000000000008304169450780100000000000000000000000000000000000000000000000090910460ff1692509050565b604080517f4d494e545f524f4c4500000000000000000000000000000000000000000000008152905190819003600901902061137c838361395c565b611387338383611ddf565b60408051808201909152600f81527f4150505f415554485f4641494c454400000000000000000000000000000000006020820152901515611424576040517f08c379a000000000000000000000000000000000000000000000000000000000815260040180806020018281038252838181518152602001915080519060200190808383600083811015610a5d578181015183820152602001610a45565b5060408051808201909152601681527f544d5f4d494e545f52454345495645525f49535f544d00000000000000000000602082015273ffffffffffffffffffffffffffffffffffffffff85163014156114d9576040517f08c379a000000000000000000000000000000000000000000000000000000000815260040180806020018281038252838181518152602001915080519060200190808383600083811015610a5d578181015183820152602001610a45565b506114e48484613b74565b50505050565b604080517f4348414e47455f434f4e54524f4c4c45525f524f4c45000000000000000000008152905190819003601601902081565b6000805460408051808201909152601381527f544d5f43414c4c45525f4e4f545f544f4b454e0000000000000000000000000060208201529073ffffffffffffffffffffffffffffffffffffffff1633146115d6576040517f08c379a000000000000000000000000000000000000000000000000000000000815260040180806020018281038252838181518152602001915080519060200190808383600083811015610a5d578181015183820152602001610a45565b506115e18383613cd2565b80156115f85750816115f585610aa56137b8565b10155b1561160f57611608848484613dbc565b9050611613565b5060005b9392505050565b604080517f5345545f484f4f4b5f524f4c45000000000000000000000000000000000000008152905190819003600d019020600090819061165a84613ec6565b611665338383611ddf565b60408051808201909152600f81527f4150505f415554485f4641494c454400000000000000000000000000000000006020820152901515611702576040517f08c379a000000000000000000000000000000000000000000000000000000000815260040180806020018281038252838181518152602001915080519060200190808383600083811015610a5d578181015183820152602001610a45565b50600680546001810190915560008181526005602052604080822080547fffffffffffffffffffffffff00000000000000000000000000000000000000001673ffffffffffffffffffffffffffffffffffffffff8a81169190911791829055835483517f4d4eb6ce00000000000000000000000000000000000000000000000000000000815260048101879052908216602482015292519497501692634d4eb6ce9260448084019391929182900301818387803b1580156117c257600080fd5b505af11580156117d6573d6000803e3d6000fd5b5094979650505050505050565b60006117ed610987565b60408051808201909152601481527f494e49545f4e4f545f494e495449414c495a4544000000000000000000000000602082015290151561188a576040517f08c379a000000000000000000000000000000000000000000000000000000000815260040180806020018281038252838181518152602001915080519060200190808383600083811015610a5d578181015183820152602001610a45565b5061161383836137bc565b60065481565b600073ffffffffffffffffffffffffffffffffffffffff82161580610981575060005473ffffffffffffffffffffffffffffffffffffffff83811691161480159061098157505060015473ffffffffffffffffffffffffffffffffffffffff9081169116141590565b600061192f7fd625496217aa6a3453eecb9c3489dc5a53e6c67b444329ea2b2cbc9ff547639b613ee7565b905090565b604080517f49535355455f524f4c45000000000000000000000000000000000000000000008152905190819003600a01902081565b60056020526000908152604090205473ffffffffffffffffffffffffffffffffffffffff1681565b600061192f7febb05b386a8d34882b8711d156f463690983dc47815980fb82aeeff1aa43579e613ee7565b60046020526000908152604090205481565b60008060006119dc8461189b565b60408051808201909152601281527f5245434f5645525f444953414c4c4f57454400000000000000000000000000006020820152901515611a79576040517f08c379a000000000000000000000000000000000000000000000000000000000815260040180806020018281038252838181518152602001915080519060200190808383600083811015610a5d578181015183820152602001610a45565b50611a82611119565b9250611a8d83613eef565b60408051808201909152601a81527f5245434f5645525f5641554c545f4e4f545f434f4e54524143540000000000006020820152901515611b2a576040517f08c379a000000000000000000000000000000000000000000000000000000000815260040180806020018281038252838181518152602001915080519060200190808383600083811015610a5d578181015183820152602001610a45565b5073ffffffffffffffffffffffffffffffffffffffff84161515611b95576040513031925073ffffffffffffffffffffffffffffffffffffffff84169083156108fc029084906000818181858888f19350505050158015611b8f573d6000803e3d6000fd5b50611c85565b5082611bbd73ffffffffffffffffffffffffffffffffffffffff82163063ffffffff613f2916565b9150611be673ffffffffffffffffffffffffffffffffffffffff8216848463ffffffff61406216565b60408051808201909152601d81527f5245434f5645525f544f4b454e5f5452414e534645525f4641494c45440000006020820152901515611c83576040517f08c379a000000000000000000000000000000000000000000000000000000000815260040180806020018281038252838181518152602001915080519060200190808383600083811015610a5d578181015183820152602001610a45565b505b8373ffffffffffffffffffffffffffffffffffffffff168373ffffffffffffffffffffffffffffffffffffffff167f596caf56044b55fb8c4ca640089bbc2b63cae3e978b851f5745cbb7c5b288e02846040518082815260200191505060405180910390a350505050565b604080517f4255524e5f524f4c45000000000000000000000000000000000000000000000081529051908190036009019020611d2c838361395c565b611d37338383611ddf565b60408051808201909152600f81527f4150505f415554485f4641494c454400000000000000000000000000000000006020820152901515611dd4576040517f08c379a000000000000000000000000000000000000000000000000000000000815260040180806020018281038252838181518152602001915080519060200190808383600083811015610a5d578181015183820152602001610a45565b506114e484846140fa565b600080611dea610987565b1515611df95760009150611f67565b611e01612433565b905073ffffffffffffffffffffffffffffffffffffffff81161515611e295760009150611f67565b8073ffffffffffffffffffffffffffffffffffffffff1663fdef9106863087611e5188614186565b6040517c010000000000000000000000000000000000000000000000000000000063ffffffff871602815273ffffffffffffffffffffffffffffffffffffffff808616600483019081529085166024830152604482018490526080606483019081528351608484015283519192909160a490910190602085019080838360005b83811015611ee9578181015183820152602001611ed1565b50505050905090810190601f168015611f165780820380516001836020036101000a031916815260200191505b5095505050505050602060405180830381600087803b158015611f3857600080fd5b505af1158015611f4c573d6000803e3d6000fd5b505050506040513d6020811015611f6257600080fd5b505191505b509392505050565b600080611f7a612433565b604080517fbe00bbd80000000000000000000000000000000000000000000000000000000081527fd6f028ca0e8edb4a8c9757ca4fdccab25fa1e0317da1188108f7d2dee14902fb60048201527fddbcfd564f642ab5627cf68b9b7d374fb4f8a36e941a75d89c87998cef03bd616024820152905173ffffffffffffffffffffffffffffffffffffffff929092169163be00bbd8916044808201926020929091908290030181600087803b1580156110e757600080fd5b604080517f41535349474e5f524f4c450000000000000000000000000000000000000000008152905190819003600b01902081565b604080517f5345545f484f4f4b5f524f4c45000000000000000000000000000000000000008152905190819003600d0190206120a182614190565b6120ac338383611ddf565b60408051808201909152600f81527f4150505f415554485f4641494c454400000000000000000000000000000000006020820152901515612149576040517f08c379a000000000000000000000000000000000000000000000000000000000815260040180806020018281038252838181518152602001915080519060200190808383600083811015610a5d578181015183820152602001610a45565b5060008381526005602052604080822054825482517fc2239b240000000000000000000000000000000000000000000000000000000081526004810188905273ffffffffffffffffffffffffffffffffffffffff9182166024820152925191169263c2239b24926044808201939182900301818387803b1580156121cc57600080fd5b505af11580156121e0573d6000803e3d6000fd5b505050600093845250506005602052506040902080547fffffffffffffffffffffffff0000000000000000000000000000000000000000169055565b604080517f4255524e5f524f4c4500000000000000000000000000000000000000000000008152905190819003600901902081565b604080517f41535349474e5f524f4c450000000000000000000000000000000000000000008152905190819003600b01902061228d838361395c565b612298338383611ddf565b60408051808201909152600f81527f4150505f415554485f4641494c454400000000000000000000000000000000006020820152901515612335576040517f08c379a000000000000000000000000000000000000000000000000000000000815260040180806020018281038252838181518152602001915080519060200190808383600083811015610a5d578181015183820152602001610a45565b506114e4848461397e565b604080517f49535355455f524f4c45000000000000000000000000000000000000000000008152905190819003600a01902061237b82614190565b612386338383611ddf565b60408051808201909152600f81527f4150505f415554485f4641494c454400000000000000000000000000000000006020820152901515612423576040517f08c379a000000000000000000000000000000000000000000000000000000000815260040180806020018281038252838181518152602001915080519060200190808383600083811015610a5d578181015183820152602001610a45565b5061242e3084613b74565b505050565b600061192f7f4172f0f7d2289153072b0a6ca36959e0cbe2efc3afe50fc81636caa96338137b613ee7565b604080517f4348414e47455f434f4e54524f4c4c45525f524f4c45000000000000000000008152905190819003601601902061249982613ec6565b6124a4338383611ddf565b60408051808201909152600f81527f4150505f415554485f4641494c454400000000000000000000000000000000006020820152901515612541576040517f08c379a000000000000000000000000000000000000000000000000000000000815260040180806020018281038252838181518152602001915080519060200190808383600083811015610a5d578181015183820152602001610a45565b5060008054604080517f3cebb82300000000000000000000000000000000000000000000000000000000815273ffffffffffffffffffffffffffffffffffffffff878116600483015291519190921692633cebb823926024808201939182900301818387803b1580156125b357600080fd5b505af11580156125c7573d6000803e3d6000fd5b50505050505050565b6000805460408051808201909152601381527f544d5f43414c4c45525f4e4f545f544f4b454e0000000000000000000000000060208201529073ffffffffffffffffffffffffffffffffffffffff163314612687576040517f08c379a000000000000000000000000000000000000000000000000000000000815260040180806020018281038252838181518152602001915080519060200190808383600083811015610a5d578181015183820152602001610a45565b506126938484846141d1565b949350505050565b6126a3610987565b60408051808201909152601481527f494e49545f4e4f545f494e495449414c495a45440000000000000000000000006020820152901515612740576040517f08c379a000000000000000000000000000000000000000000000000000000000815260040180806020018281038252838181518152602001915080519060200190808383600083811015610a5d578181015183820152602001610a45565b5060015460408051808201909152601581527f544d5f4e4f5f575241505041424c455f544f4b454e000000000000000000000060208201529073ffffffffffffffffffffffffffffffffffffffff1615156127f7576040517f08c379a000000000000000000000000000000000000000000000000000000000815260040180806020018281038252838181518152602001915080519060200190808383600083811015610a5d578181015183820152602001610a45565b5060408051808201909152601681527f544d5f4d494e545f52454345495645525f49535f544d00000000000000000000602082015233301415612896576040517f08c379a000000000000000000000000000000000000000000000000000000000815260040180806020018281038252838181518152602001915080519060200190808383600083811015610a5d578181015183820152602001610a45565b506128a133826140fa565b6001546128cb9073ffffffffffffffffffffffffffffffffffffffff16338363ffffffff61406216565b60408051808201909152601781527f544d5f534146455f5452414e534645525f4641494c45440000000000000000006020820152901515612968576040517f08c379a000000000000000000000000000000000000000000000000000000000815260040180806020018281038252838181518152602001915080519060200190808383600083811015610a5d578181015183820152602001610a45565b5050565b60007fffffffffffffffffffffffffffffffffffffffffffffffffffffffffffffffff612997611991565b14905090565b604080517f4d494e545f524f4c4500000000000000000000000000000000000000000000008152905190819003600901902081565b604080517f575241505f544f4b454e5f524f4c4500000000000000000000000000000000008152905190819003600f019020612a0d33613ec6565b612a18338383611ddf565b60408051808201909152600f81527f4150505f415554485f4641494c454400000000000000000000000000000000006020820152901515612ab5576040517f08c379a000000000000000000000000000000000000000000000000000000000815260040180806020018281038252838181518152602001915080519060200190808383600083811015610a5d578181015183820152602001610a45565b5060015460408051808201909152601581527f544d5f4e4f5f575241505041424c455f544f4b454e000000000000000000000060208201529073ffffffffffffffffffffffffffffffffffffffff161515612b6c576040517f08c379a000000000000000000000000000000000000000000000000000000000815260040180806020018281038252838181518152602001915080519060200190808383600083811015610a5d578181015183820152602001610a45565b5060408051808201909152601681527f544d5f4d494e545f52454345495645525f49535f544d00000000000000000000602082015233301415612c0b576040517f08c379a000000000000000000000000000000000000000000000000000000000815260040180806020018281038252838181518152602001915080519060200190808383600083811015610a5d578181015183820152602001610a45565b50600154612c379073ffffffffffffffffffffffffffffffffffffffff1633308663ffffffff6142db16565b60408051808201909152601781527f544d5f534146455f5452414e534645525f4641494c45440000000000000000006020820152901515612cd4576040517f08c379a000000000000000000000000000000000000000000000000000000000815260040180806020018281038252838181518152602001915080519060200190808383600083811015610a5d578181015183820152602001610a45565b5061242e3384613b74565b60025481565b604080517f5245564f4b455f56455354494e47535f524f4c450000000000000000000000008152905190819003601401902081565b612d22611991565b60408051808201909152601881527f494e49545f414c52454144595f494e495449414c495a4544000000000000000060208201529015612dbe576040517f08c379a000000000000000000000000000000000000000000000000000000000815260040180806020018281038252838181518152602001915080519060200190808383600083811015610a5d578181015183820152602001610a45565b50612dc761437c565b3073ffffffffffffffffffffffffffffffffffffffff168473ffffffffffffffffffffffffffffffffffffffff1663f77c47916040518163ffffffff167c0100000000000000000000000000000000000000000000000000000000028152600401602060405180830381600087803b158015612e4257600080fd5b505af1158015612e56573d6000803e3d6000fd5b505050506040513d6020811015612e6c57600080fd5b505160408051808201909152601381527f544d5f544f4b454e5f434f4e54524f4c4c45520000000000000000000000000060208201529173ffffffffffffffffffffffffffffffffffffffff90911614612f22576040517f08c379a000000000000000000000000000000000000000000000000000000000815260040180806020018281038252838181518152602001915080519060200190808383600083811015610a5d578181015183820152602001610a45565b506000805473ffffffffffffffffffffffffffffffffffffffff8087167fffffffffffffffffffffffff00000000000000000000000000000000000000009283161790925560018054928616929091169190911790558015612f845780612fa6565b7fffffffffffffffffffffffffffffffffffffffffffffffffffffffffffffffff5b6002819055508115156000809054906101000a900473ffffffffffffffffffffffffffffffffffffffff1673ffffffffffffffffffffffffffffffffffffffff1663bef97c876040518163ffffffff167c0100000000000000000000000000000000000000000000000000000000028152600401602060405180830381600087803b15801561303457600080fd5b505af1158015613048573d6000803e3d6000fd5b505050506040513d602081101561305e57600080fd5b50511515146130ef5760008054604080517ff41e60c50000000000000000000000000000000000000000000000000000000081528515156004820152905173ffffffffffffffffffffffffffffffffffffffff9092169263f41e60c59260248084019382900301818387803b1580156130d657600080fd5b505af11580156130ea573d6000803e3d6000fd5b505050505b6040805173ffffffffffffffffffffffffffffffffffffffff80871682528516602082015281517f5844a58b3fee979aa5196b369b2eb44f59f5a61b1f83af3a55b62b13b903a001929181900390910190a150505050565b6000805460408051808201909152601381527f544d5f43414c4c45525f4e4f545f544f4b454e0000000000000000000000000060208201529073ffffffffffffffffffffffffffffffffffffffff1633146131fe576040517f08c379a000000000000000000000000000000000000000000000000000000000815260040180806020018281038252838181518152602001915080519060200190808383600083811015610a5d578181015183820152602001610a45565b50600092915050565b604080517f5345545f484f4f4b5f524f4c45000000000000000000000000000000000000008152905190819003600d01902081565b604080517f575241505f544f4b454e5f524f4c4500000000000000000000000000000000008152905190819003600f01902081565b604080517f5245564f4b455f56455354494e47535f524f4c450000000000000000000000008152905190819003601401902060009081906132b185613ec6565b6132bc338383611ddf565b60408051808201909152600f81527f4150505f415554485f4641494c454400000000000000000000000000000000006020820152901515613359576040517f08c379a000000000000000000000000000000000000000000000000000000000815260040180806020018281038252838181518152602001915080519060200190808383600083811015610a5d578181015183820152602001610a45565b5073ffffffffffffffffffffffffffffffffffffffff8616600090815260046020908152604091829020548251808401909352600d83527f544d5f4e4f5f56455354494e470000000000000000000000000000000000000091830191909152879187918210613424576040517f08c379a000000000000000000000000000000000000000000000000000000000815260040180806020018281038252838181518152602001915080519060200190808383600083811015610a5d578181015183820152602001610a45565b5073ffffffffffffffffffffffffffffffffffffffff881660009081526003602090815260408083208a845282529182902060018101548351808501909452601884527f544d5f56455354494e475f4e4f545f5245564f4b41424c4500000000000000009284019290925297507801000000000000000000000000000000000000000000000000900460ff161515613518576040517f08c379a000000000000000000000000000000000000000000000000000000000815260040180806020018281038252838181518152602001915080519060200190808383600083811015610a5d578181015183820152602001610a45565b508554613563906135276137b8565b600189015467ffffffffffffffff808216916801000000000000000081048216917001000000000000000000000000000000009091041661445b565b73ffffffffffffffffffffffffffffffffffffffff808a1660008181526003602090815260408083208d8452825280832083815560010180547fffffffffffffff00000000000000000000000000000000000000000000000000169055825481517f23b872dd0000000000000000000000000000000000000000000000000000000081526004810195909552306024860152604485018790529051959a50909316936323b872dd936064808501949193918390030190829087803b15801561362a57600080fd5b505af115801561363e573d6000803e3d6000fd5b505050506040513d602081101561365457600080fd5b50516040805180820190915260208082527f544d5f5245564f4b455f5452414e534645525f46524f4d5f5245564552544544908201529015156136f3576040517f08c379a000000000000000000000000000000000000000000000000000000000815260040180806020018281038252838181518152602001915080519060200190808383600083811015610a5d578181015183820152602001610a45565b506040805188815260208101879052815173ffffffffffffffffffffffffffffffffffffffff8b16927fafc516b1509f836efdc27d64d966d14f82ef53f456f0de74c12ac8a651a084cc928290030190a25050505050505050565b60005473ffffffffffffffffffffffffffffffffffffffff1681565b7fffffffff0000000000000000000000000000000000000000000000000000000081167f01ffc9a70000000000000000000000000000000000000000000000000000000014919050565b4390565b4290565b60008054604080517f70a0823100000000000000000000000000000000000000000000000000000000815273ffffffffffffffffffffffffffffffffffffffff868116600483015291518493849384938493849392909216916370a082319160248082019260209290919082900301818787803b15801561383c57600080fd5b505af1158015613850573d6000803e3d6000fd5b505050506040513d602081101561386657600080fd5b5051945073ffffffffffffffffffffffffffffffffffffffff881630146139505773ffffffffffffffffffffffffffffffffffffffff8816600090815260046020526040812054945092505b838310156139505773ffffffffffffffffffffffffffffffffffffffff8816600090815260036020908152604080832086845290915290208054600182015491935061393191899067ffffffffffffffff808216916801000000000000000081048216917001000000000000000000000000000000009091041661445b565b9050613943858263ffffffff6144d516565b94506001909201916138b2565b50929695505050505050565b60606116138373ffffffffffffffffffffffffffffffffffffffff1683614587565b6139888282613cd2565b60408051808201909152601a81527f544d5f42414c414e43455f494e435f4e4f545f414c4c4f5745440000000000006020820152901515613a25576040517f08c379a000000000000000000000000000000000000000000000000000000000815260040180806020018281038252838181518152602001915080519060200190808383600083811015610a5d578181015183820152602001610a45565b5060008054604080517f23b872dd00000000000000000000000000000000000000000000000000000000815230600482015273ffffffffffffffffffffffffffffffffffffffff868116602483015260448201869052915191909216926323b872dd92606480820193602093909283900390910190829087803b158015613aab57600080fd5b505af1158015613abf573d6000803e3d6000fd5b505050506040513d6020811015613ad557600080fd5b50516040805180820190915260208082527f544d5f41535349474e5f5452414e534645525f46524f4d5f52455645525445449082015290151561242e576040517f08c379a000000000000000000000000000000000000000000000000000000000815260040180806020018281038252838181518152602001915080519060200190808383600083811015610a5d578181015183820152602001610a45565b613b7e8282613cd2565b60408051808201909152601a81527f544d5f42414c414e43455f494e435f4e4f545f414c4c4f5745440000000000006020820152901515613c1b576040517f08c379a000000000000000000000000000000000000000000000000000000000815260040180806020018281038252838181518152602001915080519060200190808383600083811015610a5d578181015183820152602001610a45565b50613c2860008383613dbc565b5060008054604080517f827f32c000000000000000000000000000000000000000000000000000000000815273ffffffffffffffffffffffffffffffffffffffff8681166004830152602482018690529151919092169263827f32c092604480820193602093909283900390910190829087803b158015613ca857600080fd5b505af1158015613cbc573d6000803e3d6000fd5b505050506040513d60208110156114e457600080fd5b600073ffffffffffffffffffffffffffffffffffffffff8316301415613cfa57506001610981565b60025460008054604080517f70a0823100000000000000000000000000000000000000000000000000000000815273ffffffffffffffffffffffffffffffffffffffff88811660048301529151613db394889493909316926370a0823192602480820193602093909283900390910190829087803b158015613d7b57600080fd5b505af1158015613d8f573d6000803e3d6000fd5b505050506040513d6020811015613da557600080fd5b50519063ffffffff6145e216565b11159392505050565b600160005b818015613dcf575060065481105b15611f675760008181526005602052604090205473ffffffffffffffffffffffffffffffffffffffff1615613ebe5760008181526005602090815260408083205481517f4a39314900000000000000000000000000000000000000000000000000000000815273ffffffffffffffffffffffffffffffffffffffff8a8116600483015289811660248301526044820189905292519290911693634a3931499360648084019491939192918390030190829087803b158015613e8f57600080fd5b505af1158015613ea3573d6000803e3d6000fd5b505050506040513d6020811015613eb957600080fd5b505191505b600101613dc1565b60606109818273ffffffffffffffffffffffffffffffffffffffff16614190565b5490565b5490565b60008073ffffffffffffffffffffffffffffffffffffffff83161515613f185760009150613f23565b823b90506000811191505b50919050565b6040805173ffffffffffffffffffffffffffffffffffffffff83166024808301919091528251808303909101815260449091019091526020810180517bffffffffffffffffffffffffffffffffffffffffffffffffffffffff167f70a08231000000000000000000000000000000000000000000000000000000001790526000908180613fb68684614687565b60408051808201909152601c81527f534146455f4552435f32305f42414c414e43455f52455645525445440000000060208201529193509150821515614058576040517f08c379a000000000000000000000000000000000000000000000000000000000815260040180806020018281038252838181518152602001915080519060200190808383600083811015610a5d578181015183820152602001610a45565b5095945050505050565b6040805173ffffffffffffffffffffffffffffffffffffffff8416602482015260448082018490528251808303909101815260649091019091526020810180517bffffffffffffffffffffffffffffffffffffffffffffffffffffffff167fa9059cbb000000000000000000000000000000000000000000000000000000001790526000906140f185826146b8565b95945050505050565b61410682600083613dbc565b5060008054604080517fd3ce77fe00000000000000000000000000000000000000000000000000000000815273ffffffffffffffffffffffffffffffffffffffff8681166004830152602482018690529151919092169263d3ce77fe92604480820193602093909283900390910190829087803b158015613ca857600080fd5b8051602002815290565b60408051600180825281830190925260609160208083019080388339019050509050818160008151811015156141c257fe5b60209081029091010152919050565b600160005b8180156141e4575060065481105b15611f675760008181526005602052604090205473ffffffffffffffffffffffffffffffffffffffff16156142d35760008181526005602090815260408083205481517fda682aeb00000000000000000000000000000000000000000000000000000000815273ffffffffffffffffffffffffffffffffffffffff8a811660048301528981166024830152604482018990529251929091169363da682aeb9360648084019491939192918390030190829087803b1580156142a457600080fd5b505af11580156142b8573d6000803e3d6000fd5b505050506040513d60208110156142ce57600080fd5b505191505b6001016141d6565b6040805173ffffffffffffffffffffffffffffffffffffffff85811660248301528416604482015260648082018490528251808303909101815260849091019091526020810180517bffffffffffffffffffffffffffffffffffffffffffffffffffffffff167f23b872dd0000000000000000000000000000000000000000000000000000000017905260009061437286826146b8565b9695505050505050565b614384611991565b60408051808201909152601881527f494e49545f414c52454144595f494e495449414c495a4544000000000000000060208201529015614420576040517f08c379a000000000000000000000000000000000000000000000000000000000815260040180806020018281038252838181518152602001915080519060200190808383600083811015610a5d578181015183820152602001610a45565b5061445961442c6137b4565b7febb05b386a8d34882b8711d156f463690983dc47815980fb82aeeff1aa43579e9063ffffffff61470616565b565b60008082861061446e5760009150614058565b8386101561447e57869150614058565b61448e838663ffffffff6144d516565b6144ae6144a1888863ffffffff6144d516565b899063ffffffff61470a16565b8115156144b757fe5b0490506144ca878263ffffffff6144d516565b979650505050505050565b60408051808201909152601281527f4d4154485f5355425f554e444552464c4f5700000000000000000000000000006020820152600090819084841115614578576040517f08c379a000000000000000000000000000000000000000000000000000000000815260040180806020018281038252838181518152602001915080519060200190808383600083811015610a5d578181015183820152602001610a45565b505050808203805b5092915050565b6040805160028082526060808301845292602083019080388339019050509050828160008151811015156145b757fe5b6020908102909101015280518290829060019081106145d257fe5b6020908102909101015292915050565b60408051808201909152601181527f4d4154485f4144445f4f564552464c4f5700000000000000000000000000000060208201526000908383019084821015611f67576040517f08c379a000000000000000000000000000000000000000000000000000000000815260040180806020018281038252838181518152602001915080519060200190808383600083811015610a5d578181015183820152602001610a45565b6000806000806040516020818751602089018a5afa925060008311156146ac57805191505b50909590945092505050565b6000806040516020818551602087016000895af160008111156146fc573d80156146e957602081146146f2576146fa565b600193506146fa565b600183511493505b505b5090949350505050565b9055565b60008083151561471d5760009150614580565b5082820282848281151561472d57fe5b60408051808201909152601181527f4d4154485f4d554c5f4f564552464c4f5700000000000000000000000000000060208201529291900414611f67576040517f08c379a000000000000000000000000000000000000000000000000000000000815260040180806020018281038252838181518152602001915080519060200190808383600083811015610a5d578181015183820152602001610a455600a165627a7a72305820a5d86774743512611dce14d1982cf537bff79f0ea1b8a26e2939bbbeb64dd06e0029ebb05b386a8d34882b8711d156f463690983dc47815980fb82aeeff1aa43579e",
  "devdoc": {
    "methods": {
      "allowRecoverability(address)": {
        "details": "Disable recovery escape hatch for own token,     as the it has the concept of issuing tokens without assigning them"
      },
      "assign(address,uint256)": {
        "params": {
          "_amount": "Number of tokens transferred",
          "_receiver": "The address receiving the tokens"
        }
      },
      "assignVested(address,uint256,uint64,uint64,uint64,bool)": {
        "params": {
          "_amount": "Number of tokens vested",
          "_cliff": "Date when the initial portion of tokens are transferable",
          "_receiver": "The address receiving the tokens, cannot be Token Manager itself",
          "_revokable": "Whether the vesting can be revoked by the Token Manager",
          "_start": "Date the vesting calculations start",
          "_vested": "Date when all tokens are transferable"
        }
      },
      "burn(address,uint256)": {
        "params": {
          "_amount": "Number of tokens being burned",
          "_holder": "Holder of tokens being burned"
        }
      },
      "canPerform(address,bytes32,uint256[])": {
        "details": "Check whether an action can be performed by a sender for a particular role on this app",
        "params": {
          "_params": "Permission params for the role",
          "_role": "Role on this app",
          "_sender": "Sender of the call"
        },
        "return": "Boolean indicating whether the sender has the permissions to perform the action.        Always returns false if the app hasn't been initialized yet."
      },
      "changeTokenController(address)": {
        "params": {
          "_newController": "Address to transfer control of the token"
        }
      },
      "getInitializationBlock()": {
        "return": "Block number in which the contract was initialized"
      },
      "getRecoveryVault()": {
        "details": "Get the recovery vault for the app",
        "return": "Recovery vault address for the app"
      },
      "hasInitialized()": {
        "return": "Whether the contract has been initialized by the time of the current block"
      },
      "initialize(address,address,bool,uint256)": {
        "params": {
          "_maxAccountTokens": "Maximum amount of tokens an account can have (0 for infinite tokens)",
          "_token": "MiniMeToken address for the managed token (Token Manager instance must be already set as the token controller)",
          "_transferable": "whether the token can be transferred by holders",
          "_wrappableToken": "Token which can be wrapped/unwrapped to generate an equal number of the MiniMeToken. Set to address(0) to disable."
        }
      },
      "issue(uint256)": {
        "params": {
          "_amount": "Number of tokens minted"
        }
      },
      "mint(address,uint256)": {
        "params": {
          "_amount": "Number of tokens minted",
          "_receiver": "The address receiving the tokens, cannot be the Token Manager itself (use `issue()` instead)"
        }
      },
      "onApprove(address,address,uint256)": {
        "details": "Notifies the controller about an approval allowing the controller to react if desired     Initialization check is implicitly provided by `onlyToken()`.",
        "return": "False if the controller does not authorize the approval"
      },
      "proxyPayment(address)": {
        "details": "Called when ether is sent to the MiniMe Token contract     Initialization check is implicitly provided by `onlyToken()`.",
        "return": "True if the ether is accepted, false for it to throw"
      },
      "registerHook(address)": {
        "params": {
          "_hook": "Contract that will be used as Token Manager hook"
        }
      },
      "revokeHook(uint256)": {
        "params": {
          "_hookId": "Position of the hook to be removed"
        }
      },
      "revokeVesting(address,uint256)": {
        "params": {
          "_holder": "Address whose vesting to revoke",
          "_vestingId": "Numeric id of the vesting"
        }
      },
      "supportsInterface(bytes4)": {
        "details": "Query if a contract implements a certain interface",
        "params": {
          "_interfaceId": "The interface identifier being queried, as specified in ERC-165"
        },
        "return": "True if the contract implements the requested interface and if its not 0xffffffff, false otherwise"
      },
      "transferToVault(address)": {
        "params": {
          "_token": "Token balance to be sent to recovery vault."
        }
      },
      "unwrap(uint256)": {
        "params": {
          "_amount": "Amount of tokens to unwrap"
        }
      },
      "wrap(uint256)": {
        "params": {
          "_amount": "Amount of tokens to wrap"
        }
      }
    }
  },
  "userdoc": {
    "methods": {
      "assign(address,uint256)": {
        "notice": "Assign `@tokenAmount(self.token(): address, _amount, false)` tokens to `_receiver` from the Token Manager's holdings"
      },
      "assignVested(address,uint256,uint64,uint64,uint64,bool)": {
        "notice": "Assign `@tokenAmount(self.token(): address, _amount, false)` tokens to `_receiver` from the Token Manager's holdings with a `_revokable ? 'revokable' : ''` vesting starting at `@formatDate(_start)`, cliff at `@formatDate(_cliff)` (first portion of tokens transferable), and completed vesting at `@formatDate(_vested)` (all tokens transferable)"
      },
      "burn(address,uint256)": {
        "notice": "Burn `@tokenAmount(self.token(): address, _amount, false)` tokens from `_holder`"
      },
      "changeTokenController(address)": {
        "notice": "Change the token controller to `_newController`"
      },
      "initialize(address,address,bool,uint256)": {
        "notice": "Initialize Token Manager for `_token.symbol(): string`, whose tokens are `_transferable ? '' : 'not'` transferable`_maxAccountTokens > 0 ? ' and limited to a maximum of ' + @tokenAmount(_token, _maxAccountTokens, false) + ' per account' : ''`"
      },
      "issue(uint256)": {
        "notice": "Mint `@tokenAmount(self.token(): address, _amount, false)` tokens for the Token Manager"
      },
      "mint(address,uint256)": {
        "notice": "Mint `@tokenAmount(self.token(): address, _amount, false)` tokens for `_receiver`"
      },
      "registerHook(address)": {
        "notice": "Create a new Token Manager hook for `_hook`"
      },
      "revokeHook(uint256)": {
        "notice": "Revoke Token Manager hook #`_hookId`"
      },
      "revokeVesting(address,uint256)": {
        "notice": "Revoke vesting #`_vestingId` from `_holder`, returning unvested tokens to the Token Manager"
      },
      "transferToVault(address)": {
        "notice": "Send funds to recovery Vault. This contract should never receive funds,        but in case it does, this function allows one to recover them."
      },
      "unwrap(uint256)": {
        "notice": "Unwrap @tokenAmount(self.token(): address, _amount, false) to receive @tokenAmount(self.wrappableToken(): address, _amount, false)"
      },
      "wrap(uint256)": {
        "notice": "Wrap @tokenAmount(self.wrappableToken(): address, _amount, false) to receive @tokenAmount(self.token(): address, _amount, false)"
      }
    }
  }
}